{
  "contractName": "ERC20",
  "abi": [
    {
      "inputs": [
        {
          "internalType": "string",
          "name": "name_",
          "type": "string"
        },
        {
          "internalType": "string",
          "name": "symbol_",
          "type": "string"
        },
        {
          "internalType": "uint32",
          "name": "totalSupply_",
          "type": "uint32"
        }
      ],
      "stateMutability": "nonpayable",
      "type": "constructor"
    },
    {
      "anonymous": false,
      "inputs": [
        {
          "indexed": true,
          "internalType": "address",
          "name": "_owner",
          "type": "address"
        },
        {
          "indexed": true,
          "internalType": "address",
          "name": "_spender",
          "type": "address"
        },
        {
          "indexed": false,
          "internalType": "uint32",
          "name": "_value",
          "type": "uint32"
        }
      ],
      "name": "Approval",
      "type": "event"
    },
    {
      "anonymous": false,
      "inputs": [
        {
          "indexed": true,
          "internalType": "address",
          "name": "_from",
          "type": "address"
        },
        {
          "indexed": true,
          "internalType": "address",
          "name": "_to",
          "type": "address"
        },
        {
          "indexed": false,
          "internalType": "uint32",
          "name": "_value",
          "type": "uint32"
        }
      ],
      "name": "Transfer",
      "type": "event"
    },
    {
      "inputs": [],
      "name": "name",
      "outputs": [
        {
          "internalType": "string",
          "name": "",
          "type": "string"
        }
      ],
      "stateMutability": "view",
      "type": "function"
    },
    {
      "inputs": [],
      "name": "symbol",
      "outputs": [
        {
          "internalType": "string",
          "name": "",
          "type": "string"
        }
      ],
      "stateMutability": "view",
      "type": "function"
    },
    {
      "inputs": [],
      "name": "decimals",
      "outputs": [
        {
          "internalType": "uint8",
          "name": "",
          "type": "uint8"
        }
      ],
      "stateMutability": "view",
      "type": "function"
    },
    {
      "inputs": [],
      "name": "totalSupply",
      "outputs": [
        {
          "internalType": "uint32",
          "name": "",
          "type": "uint32"
        }
      ],
      "stateMutability": "view",
      "type": "function"
    },
    {
      "inputs": [
        {
          "internalType": "address",
          "name": "owner",
          "type": "address"
        }
      ],
      "name": "balanceOf",
      "outputs": [
        {
          "internalType": "uint32",
          "name": "",
          "type": "uint32"
        }
      ],
      "stateMutability": "view",
      "type": "function"
    },
    {
      "inputs": [
        {
          "internalType": "address",
          "name": "to",
          "type": "address"
        },
        {
          "internalType": "uint32",
          "name": "value",
          "type": "uint32"
        }
      ],
      "name": "transfer",
      "outputs": [
        {
          "internalType": "bool",
          "name": "",
          "type": "bool"
        }
      ],
      "stateMutability": "nonpayable",
      "type": "function"
    },
    {
      "inputs": [
        {
          "internalType": "address",
          "name": "from",
          "type": "address"
        },
        {
          "internalType": "address",
          "name": "to",
          "type": "address"
        },
        {
          "internalType": "uint32",
          "name": "value",
          "type": "uint32"
        }
      ],
      "name": "transferFrom",
      "outputs": [
        {
          "internalType": "bool",
          "name": "",
          "type": "bool"
        }
      ],
      "stateMutability": "nonpayable",
      "type": "function"
    },
    {
      "inputs": [
        {
          "internalType": "address",
          "name": "spender",
          "type": "address"
        },
        {
          "internalType": "uint32",
          "name": "value",
          "type": "uint32"
        }
      ],
      "name": "approve",
      "outputs": [
        {
          "internalType": "bool",
          "name": "",
          "type": "bool"
        }
      ],
      "stateMutability": "nonpayable",
      "type": "function"
    },
    {
      "inputs": [
        {
          "internalType": "address",
          "name": "owner",
          "type": "address"
        },
        {
          "internalType": "address",
          "name": "spender",
          "type": "address"
        }
      ],
      "name": "allowance",
      "outputs": [
        {
          "internalType": "uint32",
          "name": "",
          "type": "uint32"
        }
      ],
      "stateMutability": "view",
      "type": "function"
    }
  ],
  "bytecode": "0x60806040523480156200001157600080fd5b5060405162001b0638038062001b06833981810160405281019062000037919062000310565b63ffffffff8016600260009054906101000a900463ffffffff1663ffffffff1611156200009b576040517f08c379a00000000000000000000000000000000000000000000000000000000081526004016200009290620003f8565b60405180910390fd5b63ffffffff8016600260009054906101000a900463ffffffff1663ffffffff161115620000ff576040517f08c379a0000000000000000000000000000000000000000000000000000000008152600401620000f6906200041a565b60405180910390fd5b80600260006101000a81548163ffffffff021916908363ffffffff160217905550600260009054906101000a900463ffffffff16600360003373ffffffffffffffffffffffffffffffffffffffff1673ffffffffffffffffffffffffffffffffffffffff16815260200190815260200160002060006101000a81548163ffffffff021916908363ffffffff1602179055508260009080519060200190620001a8929190620001cb565b508160019080519060200190620001c1929190620001cb565b5050505062000699565b828054620001d990620004f2565b90600052602060002090601f016020900481019282620001fd576000855562000249565b82601f106200021857805160ff191683800117855562000249565b8280016001018555821562000249579182015b82811115620002485782518255916020019190600101906200022b565b5b5090506200025891906200025c565b5090565b5b80821115620002775760008160009055506001016200025d565b5090565b6000620002926200028c8462000465565b6200043c565b905082815260208101848484011115620002b157620002b0620005c1565b5b620002be848285620004bc565b509392505050565b600082601f830112620002de57620002dd620005bc565b5b8151620002f08482602086016200027b565b91505092915050565b6000815190506200030a816200067f565b92915050565b6000806000606084860312156200032c576200032b620005cb565b5b600084015167ffffffffffffffff8111156200034d576200034c620005c6565b5b6200035b86828701620002c6565b935050602084015167ffffffffffffffff8111156200037f576200037e620005c6565b5b6200038d86828701620002c6565b9250506040620003a086828701620002f9565b9150509250925092565b6000620003b96025836200049b565b9150620003c682620005e1565b604082019050919050565b6000620003e06022836200049b565b9150620003ed8262000630565b604082019050919050565b600060208201905081810360008301526200041381620003aa565b9050919050565b600060208201905081810360008301526200043581620003d1565b9050919050565b6000620004486200045b565b905062000456828262000528565b919050565b6000604051905090565b600067ffffffffffffffff8211156200048357620004826200058d565b5b6200048e82620005d0565b9050602081019050919050565b600082825260208201905092915050565b600063ffffffff82169050919050565b60005b83811015620004dc578082015181840152602081019050620004bf565b83811115620004ec576000848401525b50505050565b600060028204905060018216806200050b57607f821691505b602082108114156200052257620005216200055e565b5b50919050565b6200053382620005d0565b810181811067ffffffffffffffff821117156200055557620005546200058d565b5b80604052505050565b7f4e487b7100000000000000000000000000000000000000000000000000000000600052602260045260246000fd5b7f4e487b7100000000000000000000000000000000000000000000000000000000600052604160045260246000fd5b600080fd5b600080fd5b600080fd5b600080fd5b6000601f19601f8301169050919050565b7f45524332303a2076616c75652063616e6e6f74206265206d6f7265207468616e60008201527f20325e3332000000000000000000000000000000000000000000000000000000602082015250565b7f45524332303a2076616c75652063616e6e6f74206265206c657373207468616e60008201527f2030000000000000000000000000000000000000000000000000000000000000602082015250565b6200068a81620004ac565b81146200069657600080fd5b50565b61145d80620006a96000396000f3fe608060405234801561001057600080fd5b50600436106100935760003560e01c80638009748411610066578063800974841461012257806384269ed91461015257806395d89b4114610182578063a7e94542146101a0578063dd62ed3e146101d057610093565b806306fdde031461009857806318160ddd146100b6578063313ce567146100d457806370a08231146100f2575b600080fd5b6100a0610200565b6040516100ad9190610f6f565b60405180910390f35b6100be610292565b6040516100cb9190611051565b60405180910390f35b6100dc61036e565b6040516100e9919061106c565b60405180910390f35b61010c60048036038101906101079190610d1c565b610373565b6040516101199190611051565b60405180910390f35b61013c60048036038101906101379190610ddc565b6103cc565b6040516101499190610f54565b60405180910390f35b61016c60048036038101906101679190610d89565b610642565b6040516101799190610f54565b60405180910390f35b61018a610abd565b6040516101979190610f6f565b60405180910390f35b6101ba60048036038101906101b59190610ddc565b610b4f565b6040516101c79190610f54565b60405180910390f35b6101ea60048036038101906101e59190610d49565b610c5b565b6040516101f79190611051565b60405180910390f35b60606000805461020f9061119f565b80601f016020809104026020016040519081016040528092919081815260200182805461023b9061119f565b80156102885780601f1061025d57610100808354040283529160200191610288565b820191906000526020600020905b81548152906001019060200180831161026b57829003601f168201915b5050505050905090565b600063ffffffff8016600260009054906101000a900463ffffffff1663ffffffff1611156102f5576040517f08c379a00000000000000000000000000000000000000000000000000000000081526004016102ec90610fb1565b60405180910390fd5b63ffffffff8016600260009054906101000a900463ffffffff1663ffffffff161115610356576040517f08c379a000000000000000000000000000000000000000000000000000000000815260040161034d90611031565b60405180910390fd5b600260009054906101000a900463ffffffff16905090565b600090565b6000600360008373ffffffffffffffffffffffffffffffffffffffff1673ffffffffffffffffffffffffffffffffffffffff16815260200190815260200160002060009054906101000a900463ffffffff169050919050565b60008073ffffffffffffffffffffffffffffffffffffffff168373ffffffffffffffffffffffffffffffffffffffff16141561043d576040517f08c379a000000000000000000000000000000000000000000000000000000000815260040161043490610fd1565b60405180910390fd5b600360003373ffffffffffffffffffffffffffffffffffffffff1673ffffffffffffffffffffffffffffffffffffffff16815260200190815260200160002060009054906101000a900463ffffffff1663ffffffff168263ffffffff1611156104db576040517f08c379a00000000000000000000000000000000000000000000000000000000081526004016104d290611011565b60405180910390fd5b81600360003373ffffffffffffffffffffffffffffffffffffffff1673ffffffffffffffffffffffffffffffffffffffff16815260200190815260200160002060008282829054906101000a900463ffffffff1661053991906110dd565b92506101000a81548163ffffffff021916908363ffffffff16021790555081600360008573ffffffffffffffffffffffffffffffffffffffff1673ffffffffffffffffffffffffffffffffffffffff16815260200190815260200160002060008282829054906101000a900463ffffffff166105b591906110a3565b92506101000a81548163ffffffff021916908363ffffffff1602179055508273ffffffffffffffffffffffffffffffffffffffff163373ffffffffffffffffffffffffffffffffffffffff167f0daf680c3f528a8760b5142fe1f6f80d5f4ea18bb76f347a7a44a2d565c2b7dc846040516106309190611051565b60405180910390a36001905092915050565b60008073ffffffffffffffffffffffffffffffffffffffff168373ffffffffffffffffffffffffffffffffffffffff1614156106b3576040517f08c379a00000000000000000000000000000000000000000000000000000000081526004016106aa90610fd1565b60405180910390fd5b600073ffffffffffffffffffffffffffffffffffffffff168473ffffffffffffffffffffffffffffffffffffffff161415610723576040517f08c379a000000000000000000000000000000000000000000000000000000000815260040161071a90610f91565b60405180910390fd5b600360008573ffffffffffffffffffffffffffffffffffffffff1673ffffffffffffffffffffffffffffffffffffffff16815260200190815260200160002060009054906101000a900463ffffffff1663ffffffff168263ffffffff1611156107c1576040517f08c379a00000000000000000000000000000000000000000000000000000000081526004016107b890611011565b60405180910390fd5b600460008573ffffffffffffffffffffffffffffffffffffffff1673ffffffffffffffffffffffffffffffffffffffff16815260200190815260200160002060003373ffffffffffffffffffffffffffffffffffffffff1673ffffffffffffffffffffffffffffffffffffffff16815260200190815260200160002060009054906101000a900463ffffffff1663ffffffff168263ffffffff16111561089c576040517f08c379a000000000000000000000000000000000000000000000000000000000815260040161089390610ff1565b60405180910390fd5b81600360008673ffffffffffffffffffffffffffffffffffffffff1673ffffffffffffffffffffffffffffffffffffffff16815260200190815260200160002060008282829054906101000a900463ffffffff166108fa91906110dd565b92506101000a81548163ffffffff021916908363ffffffff16021790555081600460008673ffffffffffffffffffffffffffffffffffffffff1673ffffffffffffffffffffffffffffffffffffffff16815260200190815260200160002060003373ffffffffffffffffffffffffffffffffffffffff1673ffffffffffffffffffffffffffffffffffffffff16815260200190815260200160002060008282829054906101000a900463ffffffff166109b391906110dd565b92506101000a81548163ffffffff021916908363ffffffff16021790555081600360008573ffffffffffffffffffffffffffffffffffffffff1673ffffffffffffffffffffffffffffffffffffffff16815260200190815260200160002060008282829054906101000a900463ffffffff16610a2f91906110a3565b92506101000a81548163ffffffff021916908363ffffffff1602179055508273ffffffffffffffffffffffffffffffffffffffff168473ffffffffffffffffffffffffffffffffffffffff167f0daf680c3f528a8760b5142fe1f6f80d5f4ea18bb76f347a7a44a2d565c2b7dc84604051610aaa9190611051565b60405180910390a3600190509392505050565b606060018054610acc9061119f565b80601f0160208091040260200160405190810160405280929190818152602001828054610af89061119f565b8015610b455780601f10610b1a57610100808354040283529160200191610b45565b820191906000526020600020905b815481529060010190602001808311610b2857829003601f168201915b5050505050905090565b600081600460003373ffffffffffffffffffffffffffffffffffffffff1673ffffffffffffffffffffffffffffffffffffffff16815260200190815260200160002060008573ffffffffffffffffffffffffffffffffffffffff1673ffffffffffffffffffffffffffffffffffffffff16815260200190815260200160002060006101000a81548163ffffffff021916908363ffffffff1602179055508273ffffffffffffffffffffffffffffffffffffffff163373ffffffffffffffffffffffffffffffffffffffff167fe26b9b29b95cb706aaebdd86a3524de879b8590b0ba7e61b104f54196bab203184604051610c499190611051565b60405180910390a36001905092915050565b6000600460008473ffffffffffffffffffffffffffffffffffffffff1673ffffffffffffffffffffffffffffffffffffffff16815260200190815260200160002060008373ffffffffffffffffffffffffffffffffffffffff1673ffffffffffffffffffffffffffffffffffffffff16815260200190815260200160002060009054906101000a900463ffffffff16905092915050565b600081359050610d01816113f9565b92915050565b600081359050610d1681611410565b92915050565b600060208284031215610d3257610d3161122f565b5b6000610d4084828501610cf2565b91505092915050565b60008060408385031215610d6057610d5f61122f565b5b6000610d6e85828601610cf2565b9250506020610d7f85828601610cf2565b9150509250929050565b600080600060608486031215610da257610da161122f565b5b6000610db086828701610cf2565b9350506020610dc186828701610cf2565b9250506040610dd286828701610d07565b9150509250925092565b60008060408385031215610df357610df261122f565b5b6000610e0185828601610cf2565b9250506020610e1285828601610d07565b9150509250929050565b610e2581611123565b82525050565b6000610e3682611087565b610e408185611092565b9350610e5081856020860161116c565b610e5981611234565b840191505092915050565b6000610e71602683611092565b9150610e7c82611245565b604082019050919050565b6000610e94602583611092565b9150610e9f82611294565b604082019050919050565b6000610eb7602483611092565b9150610ec2826112e3565b604082019050919050565b6000610eda602483611092565b9150610ee582611332565b604082019050919050565b6000610efd601783611092565b9150610f0882611381565b602082019050919050565b6000610f20602283611092565b9150610f2b826113aa565b604082019050919050565b610f3f8161114f565b82525050565b610f4e8161115f565b82525050565b6000602082019050610f696000830184610e1c565b92915050565b60006020820190508181036000830152610f898184610e2b565b905092915050565b60006020820190508181036000830152610faa81610e64565b9050919050565b60006020820190508181036000830152610fca81610e87565b9050919050565b60006020820190508181036000830152610fea81610eaa565b9050919050565b6000602082019050818103600083015261100a81610ecd565b9050919050565b6000602082019050818103600083015261102a81610ef0565b9050919050565b6000602082019050818103600083015261104a81610f13565b9050919050565b60006020820190506110666000830184610f36565b92915050565b60006020820190506110816000830184610f45565b92915050565b600081519050919050565b600082825260208201905092915050565b60006110ae8261114f565b91506110b98361114f565b92508263ffffffff038211156110d2576110d16111d1565b5b828201905092915050565b60006110e88261114f565b91506110f38361114f565b925082821015611106576111056111d1565b5b828203905092915050565b600061111c8261112f565b9050919050565b60008115159050919050565b600073ffffffffffffffffffffffffffffffffffffffff82169050919050565b600063ffffffff82169050919050565b600060ff82169050919050565b60005b8381101561118a57808201518184015260208101905061116f565b83811115611199576000848401525b50505050565b600060028204905060018216806111b757607f821691505b602082108114156111cb576111ca611200565b5b50919050565b7f4e487b7100000000000000000000000000000000000000000000000000000000600052601160045260246000fd5b7f4e487b7100000000000000000000000000000000000000000000000000000000600052602260045260246000fd5b600080fd5b6000601f19601f8301169050919050565b7f45524332303a207472616e73666572742066726f6d20746865207a65726f206160008201527f6464726573730000000000000000000000000000000000000000000000000000602082015250565b7f45524332303a2076616c75652063616e6e6f74206265206d6f7265207468616e60008201527f20325e3332000000000000000000000000000000000000000000000000000000602082015250565b7f45524332303a207472616e736665727420746f20746865207a65726f2061646460008201527f7265737300000000000000000000000000000000000000000000000000000000602082015250565b7f45524332303a2076616c756520697320746f6f206269672066726f6d20616c6c60008201527f6f77656400000000000000000000000000000000000000000000000000000000602082015250565b7f45524332303a2076616c756520697320746f6f20626967000000000000000000600082015250565b7f45524332303a2076616c75652063616e6e6f74206265206c657373207468616e60008201527f2030000000000000000000000000000000000000000000000000000000000000602082015250565b61140281611111565b811461140d57600080fd5b50565b6114198161114f565b811461142457600080fd5b5056fea2646970667358221220a12bd2bbf8e75e19ca29275cb1f9a577a36aece05cb8543b2508341d9a953b5564736f6c63430008070033",
  "immutableReferences": {},
  "source": "// SPDX-License-Identifier: MIT\r\npragma solidity ^0.8.0;\r\n\r\nimport \"./IERC20.sol\";\r\n\r\ncontract ERC20 is IERC20\r\n{\r\n    string private _name;\r\n    string private _symbol;\r\n    uint32 private _totalSupply;\r\n\r\n    uint32 constant MAX = 2**32 - 1;\r\n    uint32 constant MIN = 0;\r\n\r\n\r\n    mapping(address => uint32) balances;\r\n    mapping(address => mapping (address => uint32)) allowed;\r\n\r\n\r\n    //constructor\r\n    constructor(string memory name_, string memory symbol_, uint32 totalSupply_)\r\n    {\r\n        require(_totalSupply <= MAX, \"ERC20: value cannot be more than 2^32\");\r\n        require(_totalSupply <= MAX, \"ERC20: value cannot be less than 0\");\r\n\r\n        _totalSupply = totalSupply_;\r\n        balances[msg.sender] = _totalSupply;\r\n\r\n        _name = name_;\r\n        _symbol = symbol_;\r\n    }\r\n\r\n    //methods    \r\n    function name() public virtual override view returns (string memory) { return _name; }\r\n    function symbol() public virtual override view returns (string memory) { return _symbol; }\r\n    function decimals() public virtual override view returns (uint8) { return 0; }\r\n    function totalSupply() public virtual override view returns (uint32) \r\n    {\r\n        require(_totalSupply <= MAX, \"ERC20: value cannot be more than 2^32\");\r\n        require(_totalSupply <= MAX, \"ERC20: value cannot be less than 0\");\r\n\r\n        return _totalSupply; \r\n    }   \r\n    function balanceOf(address owner) public virtual override view returns (uint32) { return balances[owner]; }\r\n\r\n    function transfer(address to, uint32 value) public virtual override returns (bool)\r\n    {\r\n        require(to != address(0), \"ERC20: transfert to the zero address\");\r\n        require(value <= balances[msg.sender], \"ERC20: value is too big\");\r\n        \r\n        balances[msg.sender] -= value;\r\n        balances[to] += value;\r\n        \r\n        emit Transfer(msg.sender, to, value);\r\n        \r\n        return true;\r\n    }\r\n    function transferFrom(address from, address to, uint32 value) public virtual override returns (bool)\r\n    {\r\n        require(to != address(0), \"ERC20: transfert to the zero address\");\r\n        require(from != address(0), \"ERC20: transfert from the zero address\");\r\n        require(value <= balances[from], \"ERC20: value is too big\");\r\n        require(value <= allowed[from][msg.sender], \"ERC20: value is too big from allowed\");\r\n        \r\n        balances[from] -= value;\r\n        allowed[from][msg.sender] -= value;\r\n        balances[to] += value;\r\n        \r\n        emit Transfer(from, to, value);\r\n    \r\n        return true;\r\n    }\r\n\r\n    function approve(address spender, uint32 value) public virtual override returns (bool)\r\n    {\r\n        allowed[msg.sender][spender] = value;\r\n        emit Approval(msg.sender, spender, value);\r\n        return true;\r\n    }\r\n\r\n    function allowance(address owner, address spender) public virtual override view returns (uint32)\r\n    {\r\n        return allowed[owner][spender];\r\n    }\r\n}",
  "sourcePath": "C:\\Users\\User\\Desktop\\Solidity\\InternToken\\token\\ERC20.sol",
  "compiler": {
    "name": "solc",
    "version": "0.8.7+commit.e28d00a7.Emscripten.clang"
  },
  "schemaVersion": "3.4.3",
  "updatedAt": "2021-09-29T11:22:16.757Z",
  "devdoc": {
    "kind": "dev",
    "methods": {},
    "version": 1
  },
  "userdoc": {
    "kind": "user",
    "methods": {},
    "version": 1
  }
}