{
  "contractName": "ERC20",
  "abi": [
    {
      "inputs": [
        {
          "internalType": "uint32",
          "name": "totalSupply_",
          "type": "uint32"
        }
      ],
      "stateMutability": "nonpayable",
      "type": "constructor"
    },
    {
      "anonymous": false,
      "inputs": [
        {
          "indexed": true,
          "internalType": "address",
          "name": "_owner",
          "type": "address"
        },
        {
          "indexed": true,
          "internalType": "address",
          "name": "_spender",
          "type": "address"
        },
        {
          "indexed": false,
          "internalType": "uint32",
          "name": "_value",
          "type": "uint32"
        }
      ],
      "name": "Approval",
      "type": "event"
    },
    {
      "anonymous": false,
      "inputs": [
        {
          "indexed": true,
          "internalType": "address",
          "name": "_from",
          "type": "address"
        },
        {
          "indexed": true,
          "internalType": "address",
          "name": "_to",
          "type": "address"
        },
        {
          "indexed": false,
          "internalType": "uint32",
          "name": "_value",
          "type": "uint32"
        }
      ],
      "name": "Transfer",
      "type": "event"
    },
    {
      "inputs": [],
      "name": "name",
      "outputs": [
        {
          "internalType": "string",
          "name": "",
          "type": "string"
        }
      ],
      "stateMutability": "view",
      "type": "function"
    },
    {
      "inputs": [],
      "name": "symbol",
      "outputs": [
        {
          "internalType": "string",
          "name": "",
          "type": "string"
        }
      ],
      "stateMutability": "view",
      "type": "function"
    },
    {
      "inputs": [],
      "name": "decimals",
      "outputs": [
        {
          "internalType": "uint8",
          "name": "",
          "type": "uint8"
        }
      ],
      "stateMutability": "view",
      "type": "function"
    },
    {
      "inputs": [],
      "name": "totalSupply",
      "outputs": [
        {
          "internalType": "uint32",
          "name": "",
          "type": "uint32"
        }
      ],
      "stateMutability": "view",
      "type": "function"
    },
    {
      "inputs": [
        {
          "internalType": "address",
          "name": "owner",
          "type": "address"
        }
      ],
      "name": "balanceOf",
      "outputs": [
        {
          "internalType": "uint32",
          "name": "",
          "type": "uint32"
        }
      ],
      "stateMutability": "view",
      "type": "function"
    },
    {
      "inputs": [
        {
          "internalType": "address",
          "name": "to",
          "type": "address"
        },
        {
          "internalType": "uint32",
          "name": "value",
          "type": "uint32"
        }
      ],
      "name": "transfer",
      "outputs": [
        {
          "internalType": "bool",
          "name": "",
          "type": "bool"
        }
      ],
      "stateMutability": "nonpayable",
      "type": "function"
    },
    {
      "inputs": [
        {
          "internalType": "address",
          "name": "from",
          "type": "address"
        },
        {
          "internalType": "address",
          "name": "to",
          "type": "address"
        },
        {
          "internalType": "uint32",
          "name": "value",
          "type": "uint32"
        }
      ],
      "name": "transferFrom",
      "outputs": [
        {
          "internalType": "bool",
          "name": "",
          "type": "bool"
        }
      ],
      "stateMutability": "nonpayable",
      "type": "function"
    },
    {
      "inputs": [
        {
          "internalType": "address",
          "name": "spender",
          "type": "address"
        },
        {
          "internalType": "uint32",
          "name": "value",
          "type": "uint32"
        }
      ],
      "name": "approve",
      "outputs": [
        {
          "internalType": "bool",
          "name": "",
          "type": "bool"
        }
      ],
      "stateMutability": "nonpayable",
      "type": "function"
    },
    {
      "inputs": [
        {
          "internalType": "address",
          "name": "owner",
          "type": "address"
        },
        {
          "internalType": "address",
          "name": "spender",
          "type": "address"
        }
      ],
      "name": "allowance",
      "outputs": [
        {
          "internalType": "uint32",
          "name": "",
          "type": "uint32"
        }
      ],
      "stateMutability": "view",
      "type": "function"
    }
  ],
  "bytecode": "0x60806040523480156200001157600080fd5b506040516200130b3803806200130b8339818101604052810190620000379190620000e6565b80600260006101000a81548163ffffffff021916908363ffffffff160217905550600260009054906101000a900463ffffffff16600360003373ffffffffffffffffffffffffffffffffffffffff1673ffffffffffffffffffffffffffffffffffffffff16815260200190815260200160002060006101000a81548163ffffffff021916908363ffffffff1602179055505062000147565b600081519050620000e0816200012d565b92915050565b600060208284031215620000ff57620000fe62000128565b5b60006200010f84828501620000cf565b91505092915050565b600063ffffffff82169050919050565b600080fd5b620001388162000118565b81146200014457600080fd5b50565b6111b480620001576000396000f3fe608060405234801561001057600080fd5b50600436106100935760003560e01c80638009748411610066578063800974841461012257806384269ed91461015257806395d89b4114610182578063a7e94542146101a0578063dd62ed3e146101d057610093565b806306fdde031461009857806318160ddd146100b6578063313ce567146100d457806370a08231146100f2575b600080fd5b6100a0610200565b6040516100ad9190610d70565b60405180910390f35b6100be610205565b6040516100cb9190610e32565b60405180910390f35b6100dc61021f565b6040516100e99190610e4d565b60405180910390f35b61010c60048036038101906101079190610b40565b610224565b6040516101199190610e32565b60405180910390f35b61013c60048036038101906101379190610c00565b61027d565b6040516101499190610d55565b60405180910390f35b61016c60048036038101906101679190610bad565b610484565b6040516101799190610d55565b60405180910390f35b61018a61096e565b6040516101979190610d70565b60405180910390f35b6101ba60048036038101906101b59190610c00565b610973565b6040516101c79190610d55565b60405180910390f35b6101ea60048036038101906101e59190610b6d565b610a7f565b6040516101f79190610e32565b60405180910390f35b606090565b6000600260009054906101000a900463ffffffff16905090565b600090565b6000600360008373ffffffffffffffffffffffffffffffffffffffff1673ffffffffffffffffffffffffffffffffffffffff16815260200190815260200160002060009054906101000a900463ffffffff169050919050565b6000600360003373ffffffffffffffffffffffffffffffffffffffff1673ffffffffffffffffffffffffffffffffffffffff16815260200190815260200160002060009054906101000a900463ffffffff1663ffffffff168263ffffffff16111561031d576040517f08c379a000000000000000000000000000000000000000000000000000000000815260040161031490610e12565b60405180910390fd5b81600360003373ffffffffffffffffffffffffffffffffffffffff1673ffffffffffffffffffffffffffffffffffffffff16815260200190815260200160002060008282829054906101000a900463ffffffff1661037b9190610ebe565b92506101000a81548163ffffffff021916908363ffffffff16021790555081600360008573ffffffffffffffffffffffffffffffffffffffff1673ffffffffffffffffffffffffffffffffffffffff16815260200190815260200160002060008282829054906101000a900463ffffffff166103f79190610e84565b92506101000a81548163ffffffff021916908363ffffffff1602179055508273ffffffffffffffffffffffffffffffffffffffff163373ffffffffffffffffffffffffffffffffffffffff167f0daf680c3f528a8760b5142fe1f6f80d5f4ea18bb76f347a7a44a2d565c2b7dc846040516104729190610e32565b60405180910390a36001905092915050565b60008073ffffffffffffffffffffffffffffffffffffffff168373ffffffffffffffffffffffffffffffffffffffff1614156104f5576040517f08c379a00000000000000000000000000000000000000000000000000000000081526004016104ec90610d92565b60405180910390fd5b600073ffffffffffffffffffffffffffffffffffffffff168473ffffffffffffffffffffffffffffffffffffffff161415610565576040517f08c379a000000000000000000000000000000000000000000000000000000000815260040161055c90610df2565b60405180910390fd5b8273ffffffffffffffffffffffffffffffffffffffff168473ffffffffffffffffffffffffffffffffffffffff1614156105d4576040517f08c379a00000000000000000000000000000000000000000000000000000000081526004016105cb90610db2565b60405180910390fd5b600360008573ffffffffffffffffffffffffffffffffffffffff1673ffffffffffffffffffffffffffffffffffffffff16815260200190815260200160002060009054906101000a900463ffffffff1663ffffffff168263ffffffff161115610672576040517f08c379a000000000000000000000000000000000000000000000000000000000815260040161066990610e12565b60405180910390fd5b600460008573ffffffffffffffffffffffffffffffffffffffff1673ffffffffffffffffffffffffffffffffffffffff16815260200190815260200160002060003373ffffffffffffffffffffffffffffffffffffffff1673ffffffffffffffffffffffffffffffffffffffff16815260200190815260200160002060009054906101000a900463ffffffff1663ffffffff168263ffffffff16111561074d576040517f08c379a000000000000000000000000000000000000000000000000000000000815260040161074490610dd2565b60405180910390fd5b81600360008673ffffffffffffffffffffffffffffffffffffffff1673ffffffffffffffffffffffffffffffffffffffff16815260200190815260200160002060008282829054906101000a900463ffffffff166107ab9190610ebe565b92506101000a81548163ffffffff021916908363ffffffff16021790555081600460008673ffffffffffffffffffffffffffffffffffffffff1673ffffffffffffffffffffffffffffffffffffffff16815260200190815260200160002060003373ffffffffffffffffffffffffffffffffffffffff1673ffffffffffffffffffffffffffffffffffffffff16815260200190815260200160002060008282829054906101000a900463ffffffff166108649190610ebe565b92506101000a81548163ffffffff021916908363ffffffff16021790555081600360008573ffffffffffffffffffffffffffffffffffffffff1673ffffffffffffffffffffffffffffffffffffffff16815260200190815260200160002060008282829054906101000a900463ffffffff166108e09190610e84565b92506101000a81548163ffffffff021916908363ffffffff1602179055508273ffffffffffffffffffffffffffffffffffffffff168473ffffffffffffffffffffffffffffffffffffffff167f0daf680c3f528a8760b5142fe1f6f80d5f4ea18bb76f347a7a44a2d565c2b7dc8460405161095b9190610e32565b60405180910390a3600190509392505050565b606090565b600081600460003373ffffffffffffffffffffffffffffffffffffffff1673ffffffffffffffffffffffffffffffffffffffff16815260200190815260200160002060008573ffffffffffffffffffffffffffffffffffffffff1673ffffffffffffffffffffffffffffffffffffffff16815260200190815260200160002060006101000a81548163ffffffff021916908363ffffffff1602179055508273ffffffffffffffffffffffffffffffffffffffff163373ffffffffffffffffffffffffffffffffffffffff167fe26b9b29b95cb706aaebdd86a3524de879b8590b0ba7e61b104f54196bab203184604051610a6d9190610e32565b60405180910390a36001905092915050565b6000600460008473ffffffffffffffffffffffffffffffffffffffff1673ffffffffffffffffffffffffffffffffffffffff16815260200190815260200160002060008373ffffffffffffffffffffffffffffffffffffffff1673ffffffffffffffffffffffffffffffffffffffff16815260200190815260200160002060009054906101000a900463ffffffff16905092915050565b600081359050610b2581611150565b92915050565b600081359050610b3a81611167565b92915050565b600060208284031215610b5657610b55610faf565b5b6000610b6484828501610b16565b91505092915050565b60008060408385031215610b8457610b83610faf565b5b6000610b9285828601610b16565b9250506020610ba385828601610b16565b9150509250929050565b600080600060608486031215610bc657610bc5610faf565b5b6000610bd486828701610b16565b9350506020610be586828701610b16565b9250506040610bf686828701610b2b565b9150509250925092565b60008060408385031215610c1757610c16610faf565b5b6000610c2585828601610b16565b9250506020610c3685828601610b2b565b9150509250929050565b610c4981610f04565b82525050565b6000610c5a82610e68565b610c648185610e73565b9350610c74818560208601610f4d565b610c7d81610fb4565b840191505092915050565b6000610c95602383610e73565b9150610ca082610fc5565b604082019050919050565b6000610cb8602a83610e73565b9150610cc382611014565b604082019050919050565b6000610cdb604583610e73565b9150610ce682611063565b606082019050919050565b6000610cfe602583610e73565b9150610d09826110d8565b604082019050919050565b6000610d21601783610e73565b9150610d2c82611127565b602082019050919050565b610d4081610f30565b82525050565b610d4f81610f40565b82525050565b6000602082019050610d6a6000830184610c40565b92915050565b60006020820190508181036000830152610d8a8184610c4f565b905092915050565b60006020820190508181036000830152610dab81610c88565b9050919050565b60006020820190508181036000830152610dcb81610cab565b9050919050565b60006020820190508181036000830152610deb81610cce565b9050919050565b60006020820190508181036000830152610e0b81610cf1565b9050919050565b60006020820190508181036000830152610e2b81610d14565b9050919050565b6000602082019050610e476000830184610d37565b92915050565b6000602082019050610e626000830184610d46565b92915050565b600081519050919050565b600082825260208201905092915050565b6000610e8f82610f30565b9150610e9a83610f30565b92508263ffffffff03821115610eb357610eb2610f80565b5b828201905092915050565b6000610ec982610f30565b9150610ed483610f30565b925082821015610ee757610ee6610f80565b5b828203905092915050565b6000610efd82610f10565b9050919050565b60008115159050919050565b600073ffffffffffffffffffffffffffffffffffffffff82169050919050565b600063ffffffff82169050919050565b600060ff82169050919050565b60005b83811015610f6b578082015181840152602081019050610f50565b83811115610f7a576000848401525b50505050565b7f4e487b7100000000000000000000000000000000000000000000000000000000600052601160045260246000fd5b600080fd5b6000601f19601f8301169050919050565b7f45524332303a207472616e7366657220746f20746865207a65726f206164647260008201527f6573730000000000000000000000000000000000000000000000000000000000602082015250565b7f45524332303a20796f752063616e6e6f742073656e6420746f2074686520736160008201527f6d65206164647265737300000000000000000000000000000000000000000000602082015250565b7f45524332303a2063757272656e74206163636f756e7420686173206e6f20726960008201527f6768747320746f207472616e736665722066726f6d206f776e6572277320616360208201527f636f756e74000000000000000000000000000000000000000000000000000000604082015250565b7f45524332303a207472616e736665722066726f6d20746865207a65726f20616460008201527f6472657373000000000000000000000000000000000000000000000000000000602082015250565b7f45524332303a2076616c756520697320746f6f20626967000000000000000000600082015250565b61115981610ef2565b811461116457600080fd5b50565b61117081610f30565b811461117b57600080fd5b5056fea26469706673582212202df9527201cac17b713f59716bf9d2f321e176b53587050f9bb101a88c6f81a364736f6c63430008070033",
  "immutableReferences": {},
  "source": "// SPDX-License-Identifier: MIT\r\npragma solidity ^0.8.0;\r\n\r\nimport \"./IERC20.sol\";\r\n\r\ncontract ERC20 is IERC20\r\n{\r\n    string private _name;\r\n    string private _symbol;\r\n    uint32 private _totalSupply;\r\n\r\n    uint32 constant MAX = 2**32 - 1;\r\n    uint32 constant MIN = 0;\r\n\r\n\r\n    mapping(address => uint32) balances;\r\n    mapping(address => mapping (address => uint32)) allowed;\r\n\r\n\r\n    //constructor\r\n    constructor(uint32 totalSupply_)\r\n    {\r\n        _totalSupply = totalSupply_;\r\n        balances[msg.sender] = _totalSupply;\r\n    }\r\n\r\n    //methods    \r\n    function name() public virtual override view returns (string memory) {}\r\n    function symbol() public virtual override view returns (string memory) {}\r\n    function decimals() public virtual override view returns (uint8) { return 0; }\r\n    function totalSupply() public virtual override view returns (uint32) \r\n    {\r\n        return _totalSupply; \r\n    }   \r\n    function balanceOf(address owner) public virtual override view returns (uint32) { return balances[owner]; }\r\n\r\n    function transfer(address to, uint32 value) public virtual override returns (bool)\r\n    {\r\n        // require(to != address(0), \"ERC20: transfert to the zero address\");\r\n        require(value <= balances[msg.sender], \"ERC20: value is too big\");\r\n        \r\n        balances[msg.sender] -= value;\r\n        balances[to] += value;\r\n        \r\n        emit Transfer(msg.sender, to, value);\r\n        \r\n        return true;\r\n    }\r\n    function transferFrom(address from, address to, uint32 value) public virtual override returns (bool)\r\n    {\r\n        require(to != address(0), \"ERC20: transfer to the zero address\");\r\n        require(from != address(0), \"ERC20: transfer from the zero address\");\r\n        require(from != to, \"ERC20: you cannot send to the same address\");\r\n        require(value <= balances[from], \"ERC20: value is too big\");\r\n        require(value <= allowed[from][msg.sender], \"ERC20: current account has no rights to transfer from owner's account\");\r\n        \r\n        balances[from] -= value;\r\n        allowed[from][msg.sender] -= value;\r\n        balances[to] += value;\r\n        \r\n        emit Transfer(from, to, value);\r\n    \r\n        return true;\r\n    }\r\n\r\n    function approve(address spender, uint32 value) public virtual override returns (bool)\r\n    {\r\n        allowed[msg.sender][spender] = value;\r\n        emit Approval(msg.sender, spender, value);\r\n        return true;\r\n    }\r\n\r\n    function allowance(address owner, address spender) public virtual override view returns (uint32)\r\n    {\r\n        return allowed[owner][spender];\r\n    }\r\n}",
  "sourcePath": "C:\\Users\\User\\Desktop\\Solidity\\InternToken\\token\\ERC20.sol",
  "compiler": {
    "name": "solc",
    "version": "0.8.7+commit.e28d00a7.Emscripten.clang"
  },
  "schemaVersion": "3.4.3",
  "updatedAt": "2021-09-30T09:47:36.233Z",
  "devdoc": {
    "kind": "dev",
    "methods": {},
    "version": 1
  },
  "userdoc": {
    "kind": "user",
    "methods": {},
    "version": 1
  }
}