{
  "contractName": "InternToken",
  "abi": [
    {
      "inputs": [
        {
          "internalType": "uint32",
          "name": "totalSupply_",
          "type": "uint32"
        }
      ],
      "stateMutability": "nonpayable",
      "type": "constructor"
    },
    {
      "anonymous": false,
      "inputs": [
        {
          "indexed": false,
          "internalType": "address",
          "name": "account",
          "type": "address"
        }
      ],
      "name": "AddToWhitelist",
      "type": "event"
    },
    {
      "anonymous": false,
      "inputs": [
        {
          "indexed": true,
          "internalType": "address",
          "name": "_owner",
          "type": "address"
        },
        {
          "indexed": true,
          "internalType": "address",
          "name": "_spender",
          "type": "address"
        },
        {
          "indexed": false,
          "internalType": "uint32",
          "name": "_value",
          "type": "uint32"
        }
      ],
      "name": "Approval",
      "type": "event"
    },
    {
      "anonymous": false,
      "inputs": [
        {
          "indexed": true,
          "internalType": "address",
          "name": "account",
          "type": "address"
        },
        {
          "indexed": true,
          "internalType": "address",
          "name": "zero_address",
          "type": "address"
        },
        {
          "indexed": false,
          "internalType": "uint32",
          "name": "value",
          "type": "uint32"
        }
      ],
      "name": "Burn",
      "type": "event"
    },
    {
      "anonymous": false,
      "inputs": [
        {
          "indexed": true,
          "internalType": "address",
          "name": "zero_address",
          "type": "address"
        },
        {
          "indexed": true,
          "internalType": "address",
          "name": "account",
          "type": "address"
        },
        {
          "indexed": false,
          "internalType": "uint32",
          "name": "value",
          "type": "uint32"
        }
      ],
      "name": "Mint",
      "type": "event"
    },
    {
      "anonymous": false,
      "inputs": [
        {
          "indexed": false,
          "internalType": "address",
          "name": "account",
          "type": "address"
        }
      ],
      "name": "RemoveFromWhitelist",
      "type": "event"
    },
    {
      "anonymous": false,
      "inputs": [
        {
          "indexed": true,
          "internalType": "address",
          "name": "_from",
          "type": "address"
        },
        {
          "indexed": true,
          "internalType": "address",
          "name": "_to",
          "type": "address"
        },
        {
          "indexed": false,
          "internalType": "uint32",
          "name": "_value",
          "type": "uint32"
        }
      ],
      "name": "Transfer",
      "type": "event"
    },
    {
      "inputs": [
        {
          "internalType": "address",
          "name": "account",
          "type": "address"
        }
      ],
      "name": "addToWhitelist",
      "outputs": [],
      "stateMutability": "nonpayable",
      "type": "function"
    },
    {
      "inputs": [
        {
          "internalType": "address",
          "name": "owner",
          "type": "address"
        },
        {
          "internalType": "address",
          "name": "spender",
          "type": "address"
        }
      ],
      "name": "allowance",
      "outputs": [
        {
          "internalType": "uint32",
          "name": "",
          "type": "uint32"
        }
      ],
      "stateMutability": "view",
      "type": "function",
      "constant": true
    },
    {
      "inputs": [
        {
          "internalType": "address",
          "name": "spender",
          "type": "address"
        },
        {
          "internalType": "uint32",
          "name": "value",
          "type": "uint32"
        }
      ],
      "name": "approve",
      "outputs": [
        {
          "internalType": "bool",
          "name": "",
          "type": "bool"
        }
      ],
      "stateMutability": "nonpayable",
      "type": "function"
    },
    {
      "inputs": [
        {
          "internalType": "address",
          "name": "owner",
          "type": "address"
        }
      ],
      "name": "balanceOf",
      "outputs": [
        {
          "internalType": "uint32",
          "name": "",
          "type": "uint32"
        }
      ],
      "stateMutability": "view",
      "type": "function",
      "constant": true
    },
    {
      "inputs": [],
      "name": "decimals",
      "outputs": [
        {
          "internalType": "uint8",
          "name": "",
          "type": "uint8"
        }
      ],
      "stateMutability": "view",
      "type": "function",
      "constant": true
    },
    {
      "inputs": [
        {
          "internalType": "address",
          "name": "account",
          "type": "address"
        }
      ],
      "name": "removeFromWhitelist",
      "outputs": [],
      "stateMutability": "nonpayable",
      "type": "function"
    },
    {
      "inputs": [
        {
          "internalType": "address",
          "name": "to",
          "type": "address"
        },
        {
          "internalType": "uint32",
          "name": "value",
          "type": "uint32"
        }
      ],
      "name": "transfer",
      "outputs": [
        {
          "internalType": "bool",
          "name": "",
          "type": "bool"
        }
      ],
      "stateMutability": "nonpayable",
      "type": "function"
    },
    {
      "inputs": [
        {
          "internalType": "address",
          "name": "from",
          "type": "address"
        },
        {
          "internalType": "address",
          "name": "to",
          "type": "address"
        },
        {
          "internalType": "uint32",
          "name": "value",
          "type": "uint32"
        }
      ],
      "name": "transferFrom",
      "outputs": [
        {
          "internalType": "bool",
          "name": "",
          "type": "bool"
        }
      ],
      "stateMutability": "nonpayable",
      "type": "function"
    },
    {
      "inputs": [
        {
          "internalType": "address",
          "name": "",
          "type": "address"
        }
      ],
      "name": "whitelisted",
      "outputs": [
        {
          "internalType": "bool",
          "name": "",
          "type": "bool"
        }
      ],
      "stateMutability": "view",
      "type": "function",
      "constant": true
    },
    {
      "inputs": [],
      "name": "name",
      "outputs": [
        {
          "internalType": "string",
          "name": "",
          "type": "string"
        }
      ],
      "stateMutability": "view",
      "type": "function",
      "constant": true
    },
    {
      "inputs": [],
      "name": "symbol",
      "outputs": [
        {
          "internalType": "string",
          "name": "",
          "type": "string"
        }
      ],
      "stateMutability": "view",
      "type": "function",
      "constant": true
    },
    {
      "inputs": [],
      "name": "totalSupply",
      "outputs": [
        {
          "internalType": "uint32",
          "name": "",
          "type": "uint32"
        }
      ],
      "stateMutability": "view",
      "type": "function",
      "constant": true
    },
    {
      "inputs": [
        {
          "internalType": "uint32",
          "name": "value",
          "type": "uint32"
        }
      ],
      "name": "burn",
      "outputs": [],
      "stateMutability": "nonpayable",
      "type": "function"
    },
    {
      "inputs": [
        {
          "internalType": "uint32",
          "name": "value",
          "type": "uint32"
        }
      ],
      "name": "mint",
      "outputs": [],
      "stateMutability": "nonpayable",
      "type": "function"
    }
  ],
  "bytecode": "0x60806040523480156200001157600080fd5b50604051620025263803806200252683398181016040528101906200003791906200032f565b600860009054906101000a900463ffffffff1680600260006101000a81548163ffffffff021916908363ffffffff160217905550600260009054906101000a900463ffffffff16600360003373ffffffffffffffffffffffffffffffffffffffff1673ffffffffffffffffffffffffffffffffffffffff16815260200190815260200160002060006101000a81548163ffffffff021916908363ffffffff160217905550506001600560003373ffffffffffffffffffffffffffffffffffffffff1673ffffffffffffffffffffffffffffffffffffffff16815260200190815260200160002060006101000a81548160ff02191690831515021790555080600860006101000a81548163ffffffff021916908363ffffffff160217905550600860009054906101000a900463ffffffff16600360003373ffffffffffffffffffffffffffffffffffffffff1673ffffffffffffffffffffffffffffffffffffffff16815260200190815260200160002060006101000a81548163ffffffff021916908363ffffffff1602179055506040518060400160405280600c81526020017f496e7465726e20546f6b656e0000000000000000000000000000000000000000815250600690805190602001906200021292919062000268565b506040518060400160405280600381526020017f494e540000000000000000000000000000000000000000000000000000000000815250600790805190602001906200026092919062000268565b5050620003f5565b828054620002769062000371565b90600052602060002090601f0160209004810192826200029a5760008555620002e6565b82601f10620002b557805160ff1916838001178555620002e6565b82800160010185558215620002e6579182015b82811115620002e5578251825591602001919060010190620002c8565b5b509050620002f59190620002f9565b5090565b5b8082111562000314576000816000905550600101620002fa565b5090565b6000815190506200032981620003db565b92915050565b600060208284031215620003485762000347620003d6565b5b6000620003588482850162000318565b91505092915050565b600063ffffffff82169050919050565b600060028204905060018216806200038a57607f821691505b60208210811415620003a157620003a0620003a7565b5b50919050565b7f4e487b7100000000000000000000000000000000000000000000000000000000600052602260045260246000fd5b600080fd5b620003e68162000361565b8114620003f257600080fd5b50565b61212180620004056000396000f3fe608060405234801561001057600080fd5b50600436106100ea5760003560e01c80638ab1d6811161008c578063a7e9454211610066578063a7e945421461024b578063d936547e1461027b578063dd62ed3e146102ab578063e43252d7146102db576100ea565b80638ab1d681146101f557806395d89b4114610211578063a71bbebe1461022f576100ea565b806370a08231116100c857806370a08231146101495780637a5984c414610179578063800974841461019557806384269ed9146101c5576100ea565b806306fdde03146100ef57806318160ddd1461010d578063313ce5671461012b575b600080fd5b6100f76102f7565b6040516101049190611976565b60405180910390f35b610115610389565b6040516101229190611b38565b60405180910390f35b6101336103a3565b6040516101409190611b53565b60405180910390f35b610163600480360381019061015e91906115d7565b6103a8565b6040516101709190611b38565b60405180910390f35b610193600480360381019061018e91906116d7565b610401565b005b6101af60048036038101906101aa9190611697565b61040e565b6040516101bc919061195b565b60405180910390f35b6101df60048036038101906101da9190611644565b610615565b6040516101ec919061195b565b60405180910390f35b61020f600480360381019061020a91906115d7565b610aff565b005b610219610cb7565b6040516102269190611976565b60405180910390f35b610249600480360381019061024491906116d7565b610d49565b005b61026560048036038101906102609190611697565b610d56565b604051610272919061195b565b60405180910390f35b610295600480360381019061029091906115d7565b610e62565b6040516102a2919061195b565b60405180910390f35b6102c560048036038101906102c09190611604565b610e82565b6040516102d29190611b38565b60405180910390f35b6102f560048036038101906102f091906115d7565b610f19565b005b60606006805461030690611c86565b80601f016020809104026020016040519081016040528092919081815260200182805461033290611c86565b801561037f5780601f106103545761010080835404028352916020019161037f565b820191906000526020600020905b81548152906001019060200180831161036257829003601f168201915b5050505050905090565b6000600860009054906101000a900463ffffffff16905090565b600090565b6000600360008373ffffffffffffffffffffffffffffffffffffffff1673ffffffffffffffffffffffffffffffffffffffff16815260200190815260200160002060009054906101000a900463ffffffff169050919050565b61040b3382611142565b50565b6000600360003373ffffffffffffffffffffffffffffffffffffffff1673ffffffffffffffffffffffffffffffffffffffff16815260200190815260200160002060009054906101000a900463ffffffff1663ffffffff168263ffffffff1611156104ae576040517f08c379a00000000000000000000000000000000000000000000000000000000081526004016104a590611b18565b60405180910390fd5b81600360003373ffffffffffffffffffffffffffffffffffffffff1673ffffffffffffffffffffffffffffffffffffffff16815260200190815260200160002060008282829054906101000a900463ffffffff1661050c9190611bc4565b92506101000a81548163ffffffff021916908363ffffffff16021790555081600360008573ffffffffffffffffffffffffffffffffffffffff1673ffffffffffffffffffffffffffffffffffffffff16815260200190815260200160002060008282829054906101000a900463ffffffff166105889190611b8a565b92506101000a81548163ffffffff021916908363ffffffff1602179055508273ffffffffffffffffffffffffffffffffffffffff163373ffffffffffffffffffffffffffffffffffffffff167f0daf680c3f528a8760b5142fe1f6f80d5f4ea18bb76f347a7a44a2d565c2b7dc846040516106039190611b38565b60405180910390a36001905092915050565b60008073ffffffffffffffffffffffffffffffffffffffff168373ffffffffffffffffffffffffffffffffffffffff161415610686576040517f08c379a000000000000000000000000000000000000000000000000000000000815260040161067d90611998565b60405180910390fd5b600073ffffffffffffffffffffffffffffffffffffffff168473ffffffffffffffffffffffffffffffffffffffff1614156106f6576040517f08c379a00000000000000000000000000000000000000000000000000000000081526004016106ed90611ad8565b60405180910390fd5b8273ffffffffffffffffffffffffffffffffffffffff168473ffffffffffffffffffffffffffffffffffffffff161415610765576040517f08c379a000000000000000000000000000000000000000000000000000000000815260040161075c90611a38565b60405180910390fd5b600360008573ffffffffffffffffffffffffffffffffffffffff1673ffffffffffffffffffffffffffffffffffffffff16815260200190815260200160002060009054906101000a900463ffffffff1663ffffffff168263ffffffff161115610803576040517f08c379a00000000000000000000000000000000000000000000000000000000081526004016107fa90611b18565b60405180910390fd5b600460008573ffffffffffffffffffffffffffffffffffffffff1673ffffffffffffffffffffffffffffffffffffffff16815260200190815260200160002060003373ffffffffffffffffffffffffffffffffffffffff1673ffffffffffffffffffffffffffffffffffffffff16815260200190815260200160002060009054906101000a900463ffffffff1663ffffffff168263ffffffff1611156108de576040517f08c379a00000000000000000000000000000000000000000000000000000000081526004016108d590611a58565b60405180910390fd5b81600360008673ffffffffffffffffffffffffffffffffffffffff1673ffffffffffffffffffffffffffffffffffffffff16815260200190815260200160002060008282829054906101000a900463ffffffff1661093c9190611bc4565b92506101000a81548163ffffffff021916908363ffffffff16021790555081600460008673ffffffffffffffffffffffffffffffffffffffff1673ffffffffffffffffffffffffffffffffffffffff16815260200190815260200160002060003373ffffffffffffffffffffffffffffffffffffffff1673ffffffffffffffffffffffffffffffffffffffff16815260200190815260200160002060008282829054906101000a900463ffffffff166109f59190611bc4565b92506101000a81548163ffffffff021916908363ffffffff16021790555081600360008573ffffffffffffffffffffffffffffffffffffffff1673ffffffffffffffffffffffffffffffffffffffff16815260200190815260200160002060008282829054906101000a900463ffffffff16610a719190611b8a565b92506101000a81548163ffffffff021916908363ffffffff1602179055508273ffffffffffffffffffffffffffffffffffffffff168473ffffffffffffffffffffffffffffffffffffffff167f0daf680c3f528a8760b5142fe1f6f80d5f4ea18bb76f347a7a44a2d565c2b7dc84604051610aec9190611b38565b60405180910390a3600190509392505050565b60011515600560003373ffffffffffffffffffffffffffffffffffffffff1673ffffffffffffffffffffffffffffffffffffffff16815260200190815260200160002060009054906101000a900460ff16151514610b92576040517f08c379a0000000000000000000000000000000000000000000000000000000008152600401610b8990611a18565b60405180910390fd5b60011515600560008373ffffffffffffffffffffffffffffffffffffffff1673ffffffffffffffffffffffffffffffffffffffff16815260200190815260200160002060009054906101000a900460ff16151514610c25576040517f08c379a0000000000000000000000000000000000000000000000000000000008152600401610c1c906119b8565b60405180910390fd5b6000600560008373ffffffffffffffffffffffffffffffffffffffff1673ffffffffffffffffffffffffffffffffffffffff16815260200190815260200160002060006101000a81548160ff0219169083151502179055507f1f756c8b089af6b33ee121fee8badac2553a2fa89c0575ea91ff8792617746c281604051610cac9190611940565b60405180910390a150565b606060078054610cc690611c86565b80601f0160208091040260200160405190810160405280929190818152602001828054610cf290611c86565b8015610d3f5780601f10610d1457610100808354040283529160200191610d3f565b820191906000526020600020905b815481529060010190602001808311610d2257829003601f168201915b5050505050905090565b610d53338261136b565b50565b600081600460003373ffffffffffffffffffffffffffffffffffffffff1673ffffffffffffffffffffffffffffffffffffffff16815260200190815260200160002060008573ffffffffffffffffffffffffffffffffffffffff1673ffffffffffffffffffffffffffffffffffffffff16815260200190815260200160002060006101000a81548163ffffffff021916908363ffffffff1602179055508273ffffffffffffffffffffffffffffffffffffffff163373ffffffffffffffffffffffffffffffffffffffff167fe26b9b29b95cb706aaebdd86a3524de879b8590b0ba7e61b104f54196bab203184604051610e509190611b38565b60405180910390a36001905092915050565b60056020528060005260406000206000915054906101000a900460ff1681565b6000600460008473ffffffffffffffffffffffffffffffffffffffff1673ffffffffffffffffffffffffffffffffffffffff16815260200190815260200160002060008373ffffffffffffffffffffffffffffffffffffffff1673ffffffffffffffffffffffffffffffffffffffff16815260200190815260200160002060009054906101000a900463ffffffff16905092915050565b60011515600560003373ffffffffffffffffffffffffffffffffffffffff1673ffffffffffffffffffffffffffffffffffffffff16815260200190815260200160002060009054906101000a900460ff16151514610fac576040517f08c379a0000000000000000000000000000000000000000000000000000000008152600401610fa390611a18565b60405180910390fd5b60011515600560008373ffffffffffffffffffffffffffffffffffffffff1673ffffffffffffffffffffffffffffffffffffffff16815260200190815260200160002060009054906101000a900460ff1615151415611040576040517f08c379a000000000000000000000000000000000000000000000000000000000815260040161103790611ab8565b60405180910390fd5b600073ffffffffffffffffffffffffffffffffffffffff168173ffffffffffffffffffffffffffffffffffffffff1614156110b0576040517f08c379a00000000000000000000000000000000000000000000000000000000081526004016110a790611af8565b60405180910390fd5b6001600560008373ffffffffffffffffffffffffffffffffffffffff1673ffffffffffffffffffffffffffffffffffffffff16815260200190815260200160002060006101000a81548160ff0219169083151502179055507f75b2135d1c8c3519f3c09c43fe6527089ef09f40c7981ebf0ed46e79e79032c7816040516111379190611940565b60405180910390a150565b600073ffffffffffffffffffffffffffffffffffffffff168273ffffffffffffffffffffffffffffffffffffffff1614156111b2576040517f08c379a00000000000000000000000000000000000000000000000000000000081526004016111a990611a78565b60405180910390fd5b600360008373ffffffffffffffffffffffffffffffffffffffff1673ffffffffffffffffffffffffffffffffffffffff16815260200190815260200160002060009054906101000a900463ffffffff1663ffffffff168163ffffffff161115611250576040517f08c379a000000000000000000000000000000000000000000000000000000000815260040161124790611a98565b60405180910390fd5b61125b60008261040e565b5080600860008282829054906101000a900463ffffffff1661127d9190611bc4565b92506101000a81548163ffffffff021916908363ffffffff160217905550600073ffffffffffffffffffffffffffffffffffffffff163373ffffffffffffffffffffffffffffffffffffffff167f0daf680c3f528a8760b5142fe1f6f80d5f4ea18bb76f347a7a44a2d565c2b7dc836040516112f99190611b38565b60405180910390a3600073ffffffffffffffffffffffffffffffffffffffff163373ffffffffffffffffffffffffffffffffffffffff167fa76fbfbaeb31a53342ef42f179435ad1610ceb8aadd812e626c369e6ea2f9a728360405161135f9190611b38565b60405180910390a35050565b600073ffffffffffffffffffffffffffffffffffffffff168273ffffffffffffffffffffffffffffffffffffffff1614156113db576040517f08c379a00000000000000000000000000000000000000000000000000000000081526004016113d290611a78565b60405180910390fd5b63ffffffff80166113ea610389565b63ffffffff161115611431576040517f08c379a0000000000000000000000000000000000000000000000000000000008152600401611428906119f8565b60405180910390fd5b600063ffffffff16611441610389565b63ffffffff161015611488576040517f08c379a000000000000000000000000000000000000000000000000000000000815260040161147f906119d8565b60405180910390fd5b80600360008473ffffffffffffffffffffffffffffffffffffffff1673ffffffffffffffffffffffffffffffffffffffff16815260200190815260200160002060008282829054906101000a900463ffffffff166114e69190611b8a565b92506101000a81548163ffffffff021916908363ffffffff16021790555080600860008282829054906101000a900463ffffffff166115259190611b8a565b92506101000a81548163ffffffff021916908363ffffffff1602179055508173ffffffffffffffffffffffffffffffffffffffff16600073ffffffffffffffffffffffffffffffffffffffff167f22cdb3fba128a88345990429803a96fdcec6a92c4675ffa078a9400dd21c696b836040516115a19190611b38565b60405180910390a35050565b6000813590506115bc816120bd565b92915050565b6000813590506115d1816120d4565b92915050565b6000602082840312156115ed576115ec611d16565b5b60006115fb848285016115ad565b91505092915050565b6000806040838503121561161b5761161a611d16565b5b6000611629858286016115ad565b925050602061163a858286016115ad565b9150509250929050565b60008060006060848603121561165d5761165c611d16565b5b600061166b868287016115ad565b935050602061167c868287016115ad565b925050604061168d868287016115c2565b9150509250925092565b600080604083850312156116ae576116ad611d16565b5b60006116bc858286016115ad565b92505060206116cd858286016115c2565b9150509250929050565b6000602082840312156116ed576116ec611d16565b5b60006116fb848285016115c2565b91505092915050565b61170d81611bf8565b82525050565b61171c81611c0a565b82525050565b600061172d82611b6e565b6117378185611b79565b9350611747818560208601611c53565b61175081611d1b565b840191505092915050565b6000611768602383611b79565b915061177382611d2c565b604082019050919050565b600061178b602c83611b79565b915061179682611d7b565b604082019050919050565b60006117ae602383611b79565b91506117b982611dca565b604082019050919050565b60006117d1601c83611b79565b91506117dc82611e19565b602082019050919050565b60006117f4602283611b79565b91506117ff82611e42565b604082019050919050565b6000611817602a83611b79565b915061182282611e91565b604082019050919050565b600061183a604583611b79565b915061184582611ee0565b606082019050919050565b600061185d601b83611b79565b915061186882611f55565b602082019050919050565b6000611880601683611b79565b915061188b82611f7e565b602082019050919050565b60006118a3602c83611b79565b91506118ae82611fa7565b604082019050919050565b60006118c6602583611b79565b91506118d182611ff6565b604082019050919050565b60006118e9602283611b79565b91506118f482612045565b604082019050919050565b600061190c601783611b79565b915061191782612094565b602082019050919050565b61192b81611c36565b82525050565b61193a81611c46565b82525050565b60006020820190506119556000830184611704565b92915050565b60006020820190506119706000830184611713565b92915050565b600060208201905081810360008301526119908184611722565b905092915050565b600060208201905081810360008301526119b18161175b565b9050919050565b600060208201905081810360008301526119d18161177e565b9050919050565b600060208201905081810360008301526119f1816117a1565b9050919050565b60006020820190508181036000830152611a11816117c4565b9050919050565b60006020820190508181036000830152611a31816117e7565b9050919050565b60006020820190508181036000830152611a518161180a565b9050919050565b60006020820190508181036000830152611a718161182d565b9050919050565b60006020820190508181036000830152611a9181611850565b9050919050565b60006020820190508181036000830152611ab181611873565b9050919050565b60006020820190508181036000830152611ad181611896565b9050919050565b60006020820190508181036000830152611af1816118b9565b9050919050565b60006020820190508181036000830152611b11816118dc565b9050919050565b60006020820190508181036000830152611b31816118ff565b9050919050565b6000602082019050611b4d6000830184611922565b92915050565b6000602082019050611b686000830184611931565b92915050565b600081519050919050565b600082825260208201905092915050565b6000611b9582611c36565b9150611ba083611c36565b92508263ffffffff03821115611bb957611bb8611cb8565b5b828201905092915050565b6000611bcf82611c36565b9150611bda83611c36565b925082821015611bed57611bec611cb8565b5b828203905092915050565b6000611c0382611c16565b9050919050565b60008115159050919050565b600073ffffffffffffffffffffffffffffffffffffffff82169050919050565b600063ffffffff82169050919050565b600060ff82169050919050565b60005b83811015611c71578082015181840152602081019050611c56565b83811115611c80576000848401525b50505050565b60006002820490506001821680611c9e57607f821691505b60208210811415611cb257611cb1611ce7565b5b50919050565b7f4e487b7100000000000000000000000000000000000000000000000000000000600052601160045260246000fd5b7f4e487b7100000000000000000000000000000000000000000000000000000000600052602260045260246000fd5b600080fd5b6000601f19601f8301169050919050565b7f45524332303a207472616e7366657220746f20746865207a65726f206164647260008201527f6573730000000000000000000000000000000000000000000000000000000000602082015250565b7f57686974656c6973743a2074686973206163636f756e7420776173206e6f742060008201527f696e2077686974656c6973740000000000000000000000000000000000000000602082015250565b7f494e543a20746f6b656e2076616c75652063616e6e6f74206265206e6567617460008201527f6976650000000000000000000000000000000000000000000000000000000000602082015250565b7f494e543a20746f6b656e2076616c7565206973206f76657266726f7700000000600082015250565b7f494e543a206f6e6c792077686974656c69737465642063616e20646f2074686160008201527f7421000000000000000000000000000000000000000000000000000000000000602082015250565b7f45524332303a20796f752063616e6e6f742073656e6420746f2074686520736160008201527f6d65206164647265737300000000000000000000000000000000000000000000602082015250565b7f45524332303a2063757272656e74206163636f756e7420686173206e6f20726960008201527f6768747320746f207472616e736665722066726f6d206f776e6572277320616360208201527f636f756e74000000000000000000000000000000000000000000000000000000604082015250565b7f494e543a20796f757220746f6b656e7320617265206275726e65640000000000600082015250565b7f494e543a2076616c756520697320746f6f206269677300000000000000000000600082015250565b7f57686974656c6973743a2074686973206163636f756e7420616c72656164792060008201527f696e2077686974656c6973740000000000000000000000000000000000000000602082015250565b7f45524332303a207472616e736665722066726f6d20746865207a65726f20616460008201527f6472657373000000000000000000000000000000000000000000000000000000602082015250565b7f57686974656c6973743a2063616e6e6f7420616464207a65726f20616464726560008201527f7373000000000000000000000000000000000000000000000000000000000000602082015250565b7f45524332303a2076616c756520697320746f6f20626967000000000000000000600082015250565b6120c681611bf8565b81146120d157600080fd5b50565b6120dd81611c36565b81146120e857600080fd5b5056fea264697066735822122059b55e2367e032d6411f3e52f5b00c5a5af8bb7978b7ef4c9dfe4b464e819ee564736f6c63430008070033",
  "immutableReferences": {},
  "source": "// SPDX-License-Identifier: MIT\r\npragma solidity ^0.8.6;\r\n\r\nimport \"../token/ERC20.sol\";\r\nimport \"../token/InternalToken/IBurnable.sol\";\r\nimport \"../token/InternalToken/IMintable.sol\";\r\nimport \"../token/InternalToken/IWhitelisted.sol\";\r\nimport \"../token/InternalToken/Whitelist.sol\";\r\n\r\ncontract InternToken is ERC20, Whitelist, IBurnable, IMintable\r\n{\r\n    string private _name;\r\n    string private _symbol;\r\n    uint32 private _totalSupply;\r\n\r\n    constructor(uint32 totalSupply_) public ERC20(_totalSupply)\r\n    {\r\n        whitelisted[msg.sender] = true;\r\n\r\n        _totalSupply = totalSupply_;\r\n        balances[msg.sender] = _totalSupply;\r\n\r\n        _name = \"Intern Token\";\r\n        _symbol = \"INT\";\r\n    }\r\n\r\n\r\n    function name() public view override returns (string memory)\r\n    {\r\n        return _name;\r\n    }\r\n\r\n    function symbol() public view override returns (string memory)\r\n    {\r\n        return _symbol;\r\n    }\r\n\r\n    function totalSupply() public override view returns (uint32) \r\n    {\r\n        return _totalSupply; \r\n    }\r\n\r\n    function burn(uint32 value) public override\r\n    {\r\n        _burn(msg.sender, value);\r\n    }\r\n\r\n    function mint(uint32 value) public override\r\n    {\r\n        _mint(msg.sender, value);\r\n    }\r\n\r\n\r\n\r\n\r\n\r\n\r\n\r\n    function _burn(address account, uint32 value) internal\r\n    {\r\n        require(account != address(0), \"INT: your tokens are burned\");\r\n        require(value <= balances[account], \"INT: value is too bigs\");\r\n\r\n        transfer(address(0), value);\r\n        _totalSupply -= value;\r\n\r\n        emit Transfer(msg.sender, address(0), value);\r\n        emit Burn(msg.sender, address(0), value);\r\n    }\r\n\r\n\r\n\r\n    function _mint(address account, uint32 value) internal\r\n    {\r\n        require(account != address(0), \"INT: your tokens are burned\");\r\n        require(totalSupply() <= MAX, \"INT: token value is overfrow\");\r\n        require(totalSupply() >= MIN, \"INT: token value cannot be negative\");\r\n\r\n        balances[account] += value;\r\n        _totalSupply += value;\r\n\r\n        emit Mint(address(0), account, value);\r\n    }\r\n}",
  "sourcePath": "C:\\Users\\User\\Desktop\\Solidity\\InternToken\\contracts\\InternToken.sol",
  "compiler": {
    "name": "solc",
    "version": "0.8.7+commit.e28d00a7.Emscripten.clang"
  },
  "schemaVersion": "3.4.3",
  "updatedAt": "2021-09-30T09:47:41.603Z",
  "networkType": "ethereum",
  "devdoc": {
    "kind": "dev",
    "methods": {},
    "version": 1
  },
  "userdoc": {
    "kind": "user",
    "methods": {},
    "version": 1
  }
}