{
  "contractName": "InternToken",
  "abi": [
    {
      "inputs": [
        {
          "internalType": "string",
          "name": "name",
          "type": "string"
        },
        {
          "internalType": "string",
          "name": "symbol",
          "type": "string"
        },
        {
          "internalType": "uint32",
          "name": "totalSupply",
          "type": "uint32"
        }
      ],
      "stateMutability": "nonpayable",
      "type": "constructor"
    },
    {
      "anonymous": false,
      "inputs": [
        {
          "indexed": true,
          "internalType": "address",
          "name": "account",
          "type": "address"
        }
      ],
      "name": "AddToWhitelist",
      "type": "event"
    },
    {
      "anonymous": false,
      "inputs": [
        {
          "indexed": true,
          "internalType": "address",
          "name": "_owner",
          "type": "address"
        },
        {
          "indexed": true,
          "internalType": "address",
          "name": "_spender",
          "type": "address"
        },
        {
          "indexed": false,
          "internalType": "uint32",
          "name": "_value",
          "type": "uint32"
        }
      ],
      "name": "Approval",
      "type": "event"
    },
    {
      "anonymous": false,
      "inputs": [
        {
          "indexed": true,
          "internalType": "address",
          "name": "account",
          "type": "address"
        },
        {
          "indexed": true,
          "internalType": "address",
          "name": "zero_address",
          "type": "address"
        },
        {
          "indexed": false,
          "internalType": "uint32",
          "name": "value",
          "type": "uint32"
        }
      ],
      "name": "Burn",
      "type": "event"
    },
    {
      "anonymous": false,
      "inputs": [
        {
          "indexed": true,
          "internalType": "address",
          "name": "zero_address",
          "type": "address"
        },
        {
          "indexed": true,
          "internalType": "address",
          "name": "account",
          "type": "address"
        },
        {
          "indexed": false,
          "internalType": "uint32",
          "name": "value",
          "type": "uint32"
        }
      ],
      "name": "Mint",
      "type": "event"
    },
    {
      "anonymous": false,
      "inputs": [
        {
          "indexed": true,
          "internalType": "address",
          "name": "account",
          "type": "address"
        }
      ],
      "name": "RemoveFromWhitelist",
      "type": "event"
    },
    {
      "anonymous": false,
      "inputs": [
        {
          "indexed": true,
          "internalType": "address",
          "name": "_from",
          "type": "address"
        },
        {
          "indexed": true,
          "internalType": "address",
          "name": "_to",
          "type": "address"
        },
        {
          "indexed": false,
          "internalType": "uint32",
          "name": "_value",
          "type": "uint32"
        }
      ],
      "name": "Transfer",
      "type": "event"
    },
    {
      "inputs": [
        {
          "internalType": "address",
          "name": "owner",
          "type": "address"
        },
        {
          "internalType": "address",
          "name": "spender",
          "type": "address"
        }
      ],
      "name": "allowance",
      "outputs": [
        {
          "internalType": "uint32",
          "name": "",
          "type": "uint32"
        }
      ],
      "stateMutability": "view",
      "type": "function"
    },
    {
      "inputs": [
        {
          "internalType": "address",
          "name": "spender",
          "type": "address"
        },
        {
          "internalType": "uint32",
          "name": "value",
          "type": "uint32"
        }
      ],
      "name": "approve",
      "outputs": [
        {
          "internalType": "bool",
          "name": "",
          "type": "bool"
        }
      ],
      "stateMutability": "nonpayable",
      "type": "function"
    },
    {
      "inputs": [
        {
          "internalType": "address",
          "name": "owner",
          "type": "address"
        }
      ],
      "name": "balanceOf",
      "outputs": [
        {
          "internalType": "uint32",
          "name": "",
          "type": "uint32"
        }
      ],
      "stateMutability": "view",
      "type": "function"
    },
    {
      "inputs": [],
      "name": "decimals",
      "outputs": [
        {
          "internalType": "uint8",
          "name": "",
          "type": "uint8"
        }
      ],
      "stateMutability": "view",
      "type": "function"
    },
    {
      "inputs": [],
      "name": "name",
      "outputs": [
        {
          "internalType": "string",
          "name": "",
          "type": "string"
        }
      ],
      "stateMutability": "view",
      "type": "function"
    },
    {
      "inputs": [],
      "name": "symbol",
      "outputs": [
        {
          "internalType": "string",
          "name": "",
          "type": "string"
        }
      ],
      "stateMutability": "view",
      "type": "function"
    },
    {
      "inputs": [],
      "name": "totalSupply",
      "outputs": [
        {
          "internalType": "uint32",
          "name": "",
          "type": "uint32"
        }
      ],
      "stateMutability": "view",
      "type": "function"
    },
    {
      "inputs": [
        {
          "internalType": "address",
          "name": "to",
          "type": "address"
        },
        {
          "internalType": "uint32",
          "name": "value",
          "type": "uint32"
        }
      ],
      "name": "transfer",
      "outputs": [
        {
          "internalType": "bool",
          "name": "",
          "type": "bool"
        }
      ],
      "stateMutability": "nonpayable",
      "type": "function"
    },
    {
      "inputs": [
        {
          "internalType": "address",
          "name": "from",
          "type": "address"
        },
        {
          "internalType": "address",
          "name": "to",
          "type": "address"
        },
        {
          "internalType": "uint32",
          "name": "value",
          "type": "uint32"
        }
      ],
      "name": "transferFrom",
      "outputs": [
        {
          "internalType": "bool",
          "name": "",
          "type": "bool"
        }
      ],
      "stateMutability": "nonpayable",
      "type": "function"
    },
    {
      "inputs": [
        {
          "internalType": "address",
          "name": "",
          "type": "address"
        }
      ],
      "name": "whitelisted",
      "outputs": [
        {
          "internalType": "bool",
          "name": "",
          "type": "bool"
        }
      ],
      "stateMutability": "view",
      "type": "function"
    }
  ],
  "bytecode": "0x60806040526040518060400160405280600c81526020017f496e7465726e20746f6b656e00000000000000000000000000000000000000008152506005908051906020019062000051929190620003c8565b506040518060400160405280600381526020017f494e540000000000000000000000000000000000000000000000000000000000815250600690805190602001906200009f929190620003c8565b50633b9aca00600760006101000a81548163ffffffff021916908363ffffffff160217905550348015620000d257600080fd5b5060405162001d5e38038062001d5e8339818101604052810190620000f891906200050d565b600580546200010790620006ef565b80601f01602080910402602001604051908101604052809291908181526020018280546200013590620006ef565b8015620001865780601f106200015a5761010080835404028352916020019162000186565b820191906000526020600020905b8154815290600101906020018083116200016857829003601f168201915b5050505050600680546200019a90620006ef565b80601f0160208091040260200160405190810160405280929190818152602001828054620001c890620006ef565b8015620002195780601f10620001ed5761010080835404028352916020019162000219565b820191906000526020600020905b815481529060010190602001808311620001fb57829003601f168201915b5050505050600760009054906101000a900463ffffffff1663ffffffff8016600260009054906101000a900463ffffffff1663ffffffff16111562000295576040517f08c379a00000000000000000000000000000000000000000000000000000000081526004016200028c90620005f5565b60405180910390fd5b63ffffffff8016600260009054906101000a900463ffffffff1663ffffffff161115620002f9576040517f08c379a0000000000000000000000000000000000000000000000000000000008152600401620002f09062000617565b60405180910390fd5b80600260006101000a81548163ffffffff021916908363ffffffff160217905550600260009054906101000a900463ffffffff16600360003373ffffffffffffffffffffffffffffffffffffffff1673ffffffffffffffffffffffffffffffffffffffff16815260200190815260200160002060006101000a81548163ffffffff021916908363ffffffff1602179055508260009080519060200190620003a2929190620003c8565b508160019080519060200190620003bb929190620003c8565b5050505050505062000896565b828054620003d690620006ef565b90600052602060002090601f016020900481019282620003fa576000855562000446565b82601f106200041557805160ff191683800117855562000446565b8280016001018555821562000446579182015b828111156200044557825182559160200191906001019062000428565b5b50905062000455919062000459565b5090565b5b80821115620004745760008160009055506001016200045a565b5090565b60006200048f620004898462000662565b62000639565b905082815260208101848484011115620004ae57620004ad620007be565b5b620004bb848285620006b9565b509392505050565b600082601f830112620004db57620004da620007b9565b5b8151620004ed84826020860162000478565b91505092915050565b60008151905062000507816200087c565b92915050565b600080600060608486031215620005295762000528620007c8565b5b600084015167ffffffffffffffff8111156200054a5762000549620007c3565b5b6200055886828701620004c3565b935050602084015167ffffffffffffffff8111156200057c576200057b620007c3565b5b6200058a86828701620004c3565b92505060406200059d86828701620004f6565b9150509250925092565b6000620005b660258362000698565b9150620005c382620007de565b604082019050919050565b6000620005dd60228362000698565b9150620005ea826200082d565b604082019050919050565b600060208201905081810360008301526200061081620005a7565b9050919050565b600060208201905081810360008301526200063281620005ce565b9050919050565b60006200064562000658565b905062000653828262000725565b919050565b6000604051905090565b600067ffffffffffffffff82111562000680576200067f6200078a565b5b6200068b82620007cd565b9050602081019050919050565b600082825260208201905092915050565b600063ffffffff82169050919050565b60005b83811015620006d9578082015181840152602081019050620006bc565b83811115620006e9576000848401525b50505050565b600060028204905060018216806200070857607f821691505b602082108114156200071f576200071e6200075b565b5b50919050565b6200073082620007cd565b810181811067ffffffffffffffff821117156200075257620007516200078a565b5b80604052505050565b7f4e487b7100000000000000000000000000000000000000000000000000000000600052602260045260246000fd5b7f4e487b7100000000000000000000000000000000000000000000000000000000600052604160045260246000fd5b600080fd5b600080fd5b600080fd5b600080fd5b6000601f19601f8301169050919050565b7f45524332303a2076616c75652063616e6e6f74206265206d6f7265207468616e60008201527f20325e3332000000000000000000000000000000000000000000000000000000602082015250565b7f45524332303a2076616c75652063616e6e6f74206265206c657373207468616e60008201527f2030000000000000000000000000000000000000000000000000000000000000602082015250565b6200088781620006a9565b81146200089357600080fd5b50565b6114b880620008a66000396000f3fe608060405234801561001057600080fd5b506004361061009e5760003560e01c806384269ed91161006657806384269ed91461015d57806395d89b411461018d578063a7e94542146101ab578063d936547e146101db578063dd62ed3e1461020b5761009e565b806306fdde03146100a357806318160ddd146100c1578063313ce567146100df57806370a08231146100fd578063800974841461012d575b600080fd5b6100ab61023b565b6040516100b89190610fca565b60405180910390f35b6100c96102cd565b6040516100d691906110ac565b60405180910390f35b6100e76103a9565b6040516100f491906110c7565b60405180910390f35b61011760048036038101906101129190610d77565b6103ae565b60405161012491906110ac565b60405180910390f35b61014760048036038101906101429190610e37565b610407565b6040516101549190610faf565b60405180910390f35b61017760048036038101906101729190610de4565b61067d565b6040516101849190610faf565b60405180910390f35b610195610af8565b6040516101a29190610fca565b60405180910390f35b6101c560048036038101906101c09190610e37565b610b8a565b6040516101d29190610faf565b60405180910390f35b6101f560048036038101906101f09190610d77565b610c96565b6040516102029190610faf565b60405180910390f35b61022560048036038101906102209190610da4565b610cb6565b60405161023291906110ac565b60405180910390f35b60606000805461024a906111fa565b80601f0160208091040260200160405190810160405280929190818152602001828054610276906111fa565b80156102c35780601f10610298576101008083540402835291602001916102c3565b820191906000526020600020905b8154815290600101906020018083116102a657829003601f168201915b5050505050905090565b600063ffffffff8016600260009054906101000a900463ffffffff1663ffffffff161115610330576040517f08c379a00000000000000000000000000000000000000000000000000000000081526004016103279061100c565b60405180910390fd5b63ffffffff8016600260009054906101000a900463ffffffff1663ffffffff161115610391576040517f08c379a00000000000000000000000000000000000000000000000000000000081526004016103889061108c565b60405180910390fd5b600260009054906101000a900463ffffffff16905090565b600090565b6000600360008373ffffffffffffffffffffffffffffffffffffffff1673ffffffffffffffffffffffffffffffffffffffff16815260200190815260200160002060009054906101000a900463ffffffff169050919050565b60008073ffffffffffffffffffffffffffffffffffffffff168373ffffffffffffffffffffffffffffffffffffffff161415610478576040517f08c379a000000000000000000000000000000000000000000000000000000000815260040161046f9061102c565b60405180910390fd5b600360003373ffffffffffffffffffffffffffffffffffffffff1673ffffffffffffffffffffffffffffffffffffffff16815260200190815260200160002060009054906101000a900463ffffffff1663ffffffff168263ffffffff161115610516576040517f08c379a000000000000000000000000000000000000000000000000000000000815260040161050d9061106c565b60405180910390fd5b81600360003373ffffffffffffffffffffffffffffffffffffffff1673ffffffffffffffffffffffffffffffffffffffff16815260200190815260200160002060008282829054906101000a900463ffffffff166105749190611138565b92506101000a81548163ffffffff021916908363ffffffff16021790555081600360008573ffffffffffffffffffffffffffffffffffffffff1673ffffffffffffffffffffffffffffffffffffffff16815260200190815260200160002060008282829054906101000a900463ffffffff166105f091906110fe565b92506101000a81548163ffffffff021916908363ffffffff1602179055508273ffffffffffffffffffffffffffffffffffffffff163373ffffffffffffffffffffffffffffffffffffffff167f0daf680c3f528a8760b5142fe1f6f80d5f4ea18bb76f347a7a44a2d565c2b7dc8460405161066b91906110ac565b60405180910390a36001905092915050565b60008073ffffffffffffffffffffffffffffffffffffffff168373ffffffffffffffffffffffffffffffffffffffff1614156106ee576040517f08c379a00000000000000000000000000000000000000000000000000000000081526004016106e59061102c565b60405180910390fd5b600073ffffffffffffffffffffffffffffffffffffffff168473ffffffffffffffffffffffffffffffffffffffff16141561075e576040517f08c379a000000000000000000000000000000000000000000000000000000000815260040161075590610fec565b60405180910390fd5b600360008573ffffffffffffffffffffffffffffffffffffffff1673ffffffffffffffffffffffffffffffffffffffff16815260200190815260200160002060009054906101000a900463ffffffff1663ffffffff168263ffffffff1611156107fc576040517f08c379a00000000000000000000000000000000000000000000000000000000081526004016107f39061106c565b60405180910390fd5b600460008573ffffffffffffffffffffffffffffffffffffffff1673ffffffffffffffffffffffffffffffffffffffff16815260200190815260200160002060003373ffffffffffffffffffffffffffffffffffffffff1673ffffffffffffffffffffffffffffffffffffffff16815260200190815260200160002060009054906101000a900463ffffffff1663ffffffff168263ffffffff1611156108d7576040517f08c379a00000000000000000000000000000000000000000000000000000000081526004016108ce9061104c565b60405180910390fd5b81600360008673ffffffffffffffffffffffffffffffffffffffff1673ffffffffffffffffffffffffffffffffffffffff16815260200190815260200160002060008282829054906101000a900463ffffffff166109359190611138565b92506101000a81548163ffffffff021916908363ffffffff16021790555081600460008673ffffffffffffffffffffffffffffffffffffffff1673ffffffffffffffffffffffffffffffffffffffff16815260200190815260200160002060003373ffffffffffffffffffffffffffffffffffffffff1673ffffffffffffffffffffffffffffffffffffffff16815260200190815260200160002060008282829054906101000a900463ffffffff166109ee9190611138565b92506101000a81548163ffffffff021916908363ffffffff16021790555081600360008573ffffffffffffffffffffffffffffffffffffffff1673ffffffffffffffffffffffffffffffffffffffff16815260200190815260200160002060008282829054906101000a900463ffffffff16610a6a91906110fe565b92506101000a81548163ffffffff021916908363ffffffff1602179055508273ffffffffffffffffffffffffffffffffffffffff168473ffffffffffffffffffffffffffffffffffffffff167f0daf680c3f528a8760b5142fe1f6f80d5f4ea18bb76f347a7a44a2d565c2b7dc84604051610ae591906110ac565b60405180910390a3600190509392505050565b606060018054610b07906111fa565b80601f0160208091040260200160405190810160405280929190818152602001828054610b33906111fa565b8015610b805780601f10610b5557610100808354040283529160200191610b80565b820191906000526020600020905b815481529060010190602001808311610b6357829003601f168201915b5050505050905090565b600081600460003373ffffffffffffffffffffffffffffffffffffffff1673ffffffffffffffffffffffffffffffffffffffff16815260200190815260200160002060008573ffffffffffffffffffffffffffffffffffffffff1673ffffffffffffffffffffffffffffffffffffffff16815260200190815260200160002060006101000a81548163ffffffff021916908363ffffffff1602179055508273ffffffffffffffffffffffffffffffffffffffff163373ffffffffffffffffffffffffffffffffffffffff167fe26b9b29b95cb706aaebdd86a3524de879b8590b0ba7e61b104f54196bab203184604051610c8491906110ac565b60405180910390a36001905092915050565b60086020528060005260406000206000915054906101000a900460ff1681565b6000600460008473ffffffffffffffffffffffffffffffffffffffff1673ffffffffffffffffffffffffffffffffffffffff16815260200190815260200160002060008373ffffffffffffffffffffffffffffffffffffffff1673ffffffffffffffffffffffffffffffffffffffff16815260200190815260200160002060009054906101000a900463ffffffff16905092915050565b600081359050610d5c81611454565b92915050565b600081359050610d718161146b565b92915050565b600060208284031215610d8d57610d8c61128a565b5b6000610d9b84828501610d4d565b91505092915050565b60008060408385031215610dbb57610dba61128a565b5b6000610dc985828601610d4d565b9250506020610dda85828601610d4d565b9150509250929050565b600080600060608486031215610dfd57610dfc61128a565b5b6000610e0b86828701610d4d565b9350506020610e1c86828701610d4d565b9250506040610e2d86828701610d62565b9150509250925092565b60008060408385031215610e4e57610e4d61128a565b5b6000610e5c85828601610d4d565b9250506020610e6d85828601610d62565b9150509250929050565b610e808161117e565b82525050565b6000610e91826110e2565b610e9b81856110ed565b9350610eab8185602086016111c7565b610eb48161128f565b840191505092915050565b6000610ecc6026836110ed565b9150610ed7826112a0565b604082019050919050565b6000610eef6025836110ed565b9150610efa826112ef565b604082019050919050565b6000610f126024836110ed565b9150610f1d8261133e565b604082019050919050565b6000610f356024836110ed565b9150610f408261138d565b604082019050919050565b6000610f586017836110ed565b9150610f63826113dc565b602082019050919050565b6000610f7b6022836110ed565b9150610f8682611405565b604082019050919050565b610f9a816111aa565b82525050565b610fa9816111ba565b82525050565b6000602082019050610fc46000830184610e77565b92915050565b60006020820190508181036000830152610fe48184610e86565b905092915050565b6000602082019050818103600083015261100581610ebf565b9050919050565b6000602082019050818103600083015261102581610ee2565b9050919050565b6000602082019050818103600083015261104581610f05565b9050919050565b6000602082019050818103600083015261106581610f28565b9050919050565b6000602082019050818103600083015261108581610f4b565b9050919050565b600060208201905081810360008301526110a581610f6e565b9050919050565b60006020820190506110c16000830184610f91565b92915050565b60006020820190506110dc6000830184610fa0565b92915050565b600081519050919050565b600082825260208201905092915050565b6000611109826111aa565b9150611114836111aa565b92508263ffffffff0382111561112d5761112c61122c565b5b828201905092915050565b6000611143826111aa565b915061114e836111aa565b9250828210156111615761116061122c565b5b828203905092915050565b60006111778261118a565b9050919050565b60008115159050919050565b600073ffffffffffffffffffffffffffffffffffffffff82169050919050565b600063ffffffff82169050919050565b600060ff82169050919050565b60005b838110156111e55780820151818401526020810190506111ca565b838111156111f4576000848401525b50505050565b6000600282049050600182168061121257607f821691505b602082108114156112265761122561125b565b5b50919050565b7f4e487b7100000000000000000000000000000000000000000000000000000000600052601160045260246000fd5b7f4e487b7100000000000000000000000000000000000000000000000000000000600052602260045260246000fd5b600080fd5b6000601f19601f8301169050919050565b7f45524332303a207472616e73666572742066726f6d20746865207a65726f206160008201527f6464726573730000000000000000000000000000000000000000000000000000602082015250565b7f45524332303a2076616c75652063616e6e6f74206265206d6f7265207468616e60008201527f20325e3332000000000000000000000000000000000000000000000000000000602082015250565b7f45524332303a207472616e736665727420746f20746865207a65726f2061646460008201527f7265737300000000000000000000000000000000000000000000000000000000602082015250565b7f45524332303a2076616c756520697320746f6f206269672066726f6d20616c6c60008201527f6f77656400000000000000000000000000000000000000000000000000000000602082015250565b7f45524332303a2076616c756520697320746f6f20626967000000000000000000600082015250565b7f45524332303a2076616c75652063616e6e6f74206265206c657373207468616e60008201527f2030000000000000000000000000000000000000000000000000000000000000602082015250565b61145d8161116c565b811461146857600080fd5b50565b611474816111aa565b811461147f57600080fd5b5056fea2646970667358221220eac02bdbc35222e12176c481b99e62baaf17275a0d7d2bea6c7c4b453fe8b4af64736f6c63430008070033",
  "immutableReferences": {},
  "source": "// SPDX-License-Identifier: MIT\r\npragma solidity ^0.8.6;\r\n\r\nimport \"../token/ERC20.sol\";\r\nimport \"../token/InternalToken/IBurnable.sol\";\r\nimport \"../token/InternalToken/IMintable.sol\";\r\nimport \"../token/InternalToken/IWhitelisted.sol\";\r\n\r\ncontract InternToken is ERC20, IBurnable, IMintable, IWhitelisted\r\n{\r\n    string private _name = \"Intern token\";\r\n    string private _symbol = \"INT\";\r\n    uint32 private _totalSupply = 1000000000;\r\n\r\n    mapping(address => bool) public whitelisted;\r\n\r\n    constructor(string memory name, string memory symbol, uint32 totalSupply) ERC20(_name, _symbol, _totalSupply){}\r\n\r\n\r\n\r\n    function burn(address account, uint32 value) internal \r\n    {\r\n        require(account != address(0), \"INT: your tokens are burned\");\r\n        require(value <= balances[account], \"INT: value is too bigs\");\r\n\r\n        emit Transfer(account, address(0), value);\r\n        emit Burn(account, address(0), value);\r\n    }\r\n\r\n\r\n\r\n    function mint(address account, uint32 value) internal\r\n    {\r\n        require(account != address(0), \"INT: your tokens are burned\");\r\n        require(totalSupply() <= MAX, \"INT: token value is overfrow\");\r\n        require(totalSupply() >= MIN, \"INT: token value cannot be negative\");\r\n\r\n        balances[account] += value;\r\n\r\n        emit Transfer(address(0), account, value);\r\n        emit Mint(address(0), account, value);\r\n    }\r\n\r\n\r\n    function addToWhitelist(address account) internal onlyWhitelisted\r\n    {\r\n        whitelisted[account] = true;\r\n        emit AddToWhitelist(account);\r\n    }\r\n\r\n    function removeFromWhitelist(address account) internal onlyWhitelisted\r\n    {\r\n        whitelisted[account] = false;       \r\n        emit RemoveFromWhitelist(account);\r\n    }\r\n\r\n    modifier onlyWhitelisted()\r\n    {\r\n        require(whitelisted[msg.sender] == true, \"INT: only owner can do that!\");\r\n        _;\r\n    }\r\n}",
  "sourcePath": "C:\\Users\\User\\Desktop\\Solidity\\InternToken\\contracts\\InternToken.sol",
  "compiler": {
    "name": "solc",
    "version": "0.8.7+commit.e28d00a7.Emscripten.clang"
  },
  "schemaVersion": "3.4.3",
  "updatedAt": "2021-09-29T11:22:16.708Z",
  "devdoc": {
    "kind": "dev",
    "methods": {},
    "version": 1
  },
  "userdoc": {
    "kind": "user",
    "methods": {},
    "version": 1
  }
}