{
  "contractName": "Whitelist",
  "abi": [
    {
      "anonymous": false,
      "inputs": [
        {
          "indexed": false,
          "internalType": "address",
          "name": "account",
          "type": "address"
        }
      ],
      "name": "AddToWhitelist",
      "type": "event"
    },
    {
      "anonymous": false,
      "inputs": [
        {
          "indexed": false,
          "internalType": "address",
          "name": "account",
          "type": "address"
        }
      ],
      "name": "RemoveFromWhitelist",
      "type": "event"
    },
    {
      "inputs": [
        {
          "internalType": "address",
          "name": "",
          "type": "address"
        }
      ],
      "name": "whitelisted",
      "outputs": [
        {
          "internalType": "bool",
          "name": "",
          "type": "bool"
        }
      ],
      "stateMutability": "view",
      "type": "function"
    },
    {
      "inputs": [
        {
          "internalType": "address",
          "name": "account",
          "type": "address"
        }
      ],
      "name": "addToWhitelist",
      "outputs": [],
      "stateMutability": "nonpayable",
      "type": "function"
    },
    {
      "inputs": [
        {
          "internalType": "address",
          "name": "account",
          "type": "address"
        }
      ],
      "name": "removeFromWhitelist",
      "outputs": [],
      "stateMutability": "nonpayable",
      "type": "function"
    }
  ],
  "bytecode": "0x608060405234801561001057600080fd5b50610828806100206000396000f3fe608060405234801561001057600080fd5b50600436106100415760003560e01c80638ab1d68114610046578063d936547e14610062578063e43252d714610092575b600080fd5b610060600480360381019061005b91906104be565b6100ae565b005b61007c600480360381019061007791906104be565b610263565b60405161008991906105b0565b60405180910390f35b6100ac60048036038101906100a791906104be565b610283565b005b600115156000803373ffffffffffffffffffffffffffffffffffffffff1673ffffffffffffffffffffffffffffffffffffffff16815260200190815260200160002060009054906101000a900460ff16151514610140576040517f08c379a0000000000000000000000000000000000000000000000000000000008152600401610137906105eb565b60405180910390fd5b600115156000808373ffffffffffffffffffffffffffffffffffffffff1673ffffffffffffffffffffffffffffffffffffffff16815260200190815260200160002060009054906101000a900460ff161515146101d2576040517f08c379a00000000000000000000000000000000000000000000000000000000081526004016101c9906105cb565b60405180910390fd5b60008060008373ffffffffffffffffffffffffffffffffffffffff1673ffffffffffffffffffffffffffffffffffffffff16815260200190815260200160002060006101000a81548160ff0219169083151502179055507f1f756c8b089af6b33ee121fee8badac2553a2fa89c0575ea91ff8792617746c2816040516102589190610595565b60405180910390a150565b60006020528060005260406000206000915054906101000a900460ff1681565b600115156000803373ffffffffffffffffffffffffffffffffffffffff1673ffffffffffffffffffffffffffffffffffffffff16815260200190815260200160002060009054906101000a900460ff16151514610315576040517f08c379a000000000000000000000000000000000000000000000000000000000815260040161030c906105eb565b60405180910390fd5b600115156000808373ffffffffffffffffffffffffffffffffffffffff1673ffffffffffffffffffffffffffffffffffffffff16815260200190815260200160002060009054906101000a900460ff16151514156103a8576040517f08c379a000000000000000000000000000000000000000000000000000000000815260040161039f9061060b565b60405180910390fd5b600073ffffffffffffffffffffffffffffffffffffffff168173ffffffffffffffffffffffffffffffffffffffff161415610418576040517f08c379a000000000000000000000000000000000000000000000000000000000815260040161040f9061062b565b60405180910390fd5b60016000808373ffffffffffffffffffffffffffffffffffffffff1673ffffffffffffffffffffffffffffffffffffffff16815260200190815260200160002060006101000a81548160ff0219169083151502179055507f75b2135d1c8c3519f3c09c43fe6527089ef09f40c7981ebf0ed46e79e79032c78160405161049e9190610595565b60405180910390a150565b6000813590506104b8816107db565b92915050565b6000602082840312156104d4576104d361069a565b5b60006104e2848285016104a9565b91505092915050565b6104f48161065c565b82525050565b6105038161066e565b82525050565b6000610516602c8361064b565b91506105218261069f565b604082019050919050565b600061053960228361064b565b9150610544826106ee565b604082019050919050565b600061055c602c8361064b565b91506105678261073d565b604082019050919050565b600061057f60228361064b565b915061058a8261078c565b604082019050919050565b60006020820190506105aa60008301846104eb565b92915050565b60006020820190506105c560008301846104fa565b92915050565b600060208201905081810360008301526105e481610509565b9050919050565b600060208201905081810360008301526106048161052c565b9050919050565b600060208201905081810360008301526106248161054f565b9050919050565b6000602082019050818103600083015261064481610572565b9050919050565b600082825260208201905092915050565b60006106678261067a565b9050919050565b60008115159050919050565b600073ffffffffffffffffffffffffffffffffffffffff82169050919050565b600080fd5b7f57686974656c6973743a2074686973206163636f756e7420776173206e6f742060008201527f696e2077686974656c6973740000000000000000000000000000000000000000602082015250565b7f494e543a206f6e6c792077686974656c69737465642063616e20646f2074686160008201527f7421000000000000000000000000000000000000000000000000000000000000602082015250565b7f57686974656c6973743a2074686973206163636f756e7420616c72656164792060008201527f696e2077686974656c6973740000000000000000000000000000000000000000602082015250565b7f57686974656c6973743a2063616e6e6f7420616464207a65726f20616464726560008201527f7373000000000000000000000000000000000000000000000000000000000000602082015250565b6107e48161065c565b81146107ef57600080fd5b5056fea26469706673582212206858e4f58fea012add75dc7b0dc8500738750fb21967484cea478086ef39b93f64736f6c63430008070033",
  "immutableReferences": {},
  "source": "// SPDX-License-Identifier: MIT\r\npragma solidity ^0.8.0;\r\n\r\nimport \"./IWhitelisted.sol\";\r\n\r\ncontract Whitelist is IWhitelisted\r\n{\r\n    mapping(address => bool) public whitelisted;\r\n\r\n    function addToWhitelist(address account) public onlyWhitelisted\r\n    {\r\n        require(whitelisted[account] != true, \"Whitelist: this account already in whitelist\");\r\n        require(account != address(0), \"Whitelist: cannot add zero address\");\r\n\r\n        whitelisted[account] = true;\r\n        emit AddToWhitelist(account);\r\n    }\r\n\r\n    function removeFromWhitelist(address account) public onlyWhitelisted\r\n    {\r\n        require(whitelisted[account] == true, \"Whitelist: this account was not in whitelist\");\r\n\r\n        whitelisted[account] = false;       \r\n        emit RemoveFromWhitelist(account);\r\n    }\r\n\r\n    modifier onlyWhitelisted()\r\n    {\r\n        require(whitelisted[msg.sender] == true, \"INT: only whitelisted can do that!\");\r\n        _;\r\n    }\r\n}",
  "sourcePath": "C:\\Users\\User\\Desktop\\Solidity\\InternToken\\token\\InternalToken\\Whitelist.sol",
  "compiler": {
    "name": "solc",
    "version": "0.8.7+commit.e28d00a7.Emscripten.clang"
  },
  "schemaVersion": "3.4.3",
  "updatedAt": "2021-09-30T09:47:36.286Z",
  "devdoc": {
    "kind": "dev",
    "methods": {},
    "version": 1
  },
  "userdoc": {
    "kind": "user",
    "methods": {},
    "version": 1
  }
}